:100000000C9435000C945D000C945D000C945D0024
:100010000C945D000C945D000C945D000C945D00EC
:100020000C945D000C945D000C945D000C945D00DC
:100030000C945D000C945D000C945D000C945D00CC
:100040000C945D000C945D000C9459030C941E03F9
:100050000C945D000C945D000C945D000C945D00AC
:100060000C94F7010C945D00930311241FBECFEF95
:10007000D8E0DEBFCDBF11E0A0E0B1E0EEE8FDE0EA
:1000800002C005900D92A234B107D9F722E0A2E494
:10009000B1E001C01D92A63BB207E1F710E0C5E355
:1000A000D0E004C02197FE010E94BF06C433D107EF
:1000B000C9F70E9411040C949B050C94000085ED77
:1000C0008093BC008091BC0084FDFCCF1092D201D3
:1000D0000895613298F42091D201243089F460931C
:1000E000AE01282FAEE8B1E0FC018E2F821B8617EF
:1000F00018F481918D93F9CF80E0089581E00895FF
:1001000082E008950895E0918D0180918C01E817B7
:1001100030F4F0E0E459FE4F808190E008958FEFD5
:100120009FEF089590918D0180918C01981750F464
:10013000E92FF0E0E459FE4F208130E09F5F90937B
:100140008D0102C02FEF3FEFC901089580918C010E
:1001500090E020918D01821B91090895CF92DF924A
:10016000EF92FF920F931F93CF93DF937C01CB010C
:100170008A0120916B01222389F0EB016B01C40EEF
:10018000D51ECC15DD0569F06991D701ED91FC9183
:100190000190F081E02DC7010995F3CF642F0E94F3
:1001A0006900C801DF91CF911F910F91FF90EF90EF
:1001B000DF90CF900895CF93DF931F92CDB7DEB736
:1001C000698320916B012223D1F020916A012032B2
:1001D00040F021E030E0FC013383228380E090E0B6
:1001E00015C080916901E82FF0E0E75BFE4F99812F
:1001F00090838F5F8093690180936A0105C061E0FD
:10020000CE0101960E94690081E090E00F90DF919D
:10021000CF9108950F931F93CF93DF93FC01A68591
:10022000B7858D01005C1F4FE80188819981019697
:100230008F739927AD014E5B5F4FEA0128813981A9
:1002400028173907D1F3E80128813981A20FB31F9C
:100250006C93A685B785A05CBF4F11969C938E9337
:10026000A689B7892C9181E090E0078C02C0880FA5
:10027000991F0A94E2F7822B8C9381E081A3048872
:10028000F589E02D80818064808381E090E0DF91BA
:10029000CF911F910F910895FC0181A1882329F02E
:1002A000A489B5898C9186FFFBCF11A20895FC012A
:1002B000A485B585FD01E05CFF4F20813181329638
:1002C000808191812817390779F080819181A80F69
:1002D000B91F8C91208131812F5F3F4F2F733327BE
:1002E0003183208390E008958FEF9FEF0895DC0124
:1002F0001C96ED91FC911D97DF01A05CBF4F2D91E5
:100300003C91119712968D919C911197281739075E
:1003100039F08D919C91E80FF91F808190E008954C
:100320008FEF9FEF0895FC0124853585F901E05C8E
:10033000FF4F80819181329620813181821B930B06
:100340008F73992708950895CF92DF92EF92FF92CD
:100350000F931F93CF93DF936C01EB017B01E40EAE
:10036000F51E00E010E0CE15DF0561F06991D601C1
:10037000ED91FC910190F081E02DC6010995080FE7
:10038000191FF1CFC801DF91CF911F910F91FF90FD
:10039000EF90DF90CF9008950F931F93CF93DF934B
:1003A000009779F0FC0101900020E9F73197AF0147
:1003B000481B590BBC018CE892E00E94A4018C01FF
:1003C00002C000E010E06DE08CE892E00E940A01BB
:1003D000EC016AE08CE892E00E940A01C00FD11F94
:1003E0008C0F9D1FDF91CF911F910F9108951F9248
:1003F0000F920FB60F9211242F933F934F935F9359
:100400006F937F938F939F93AF93BF93EF93FF93DC
:100410008091B900887F803609F49CC068F58832E5
:1004200009F45BC090F4803109F454C038F4882397
:1004300009F4EFC0883009F44DC0EFC0883109F4E9
:100440004CC0803209F45DC0E8C0803409F468C053
:1004500048F4803309F455C0883309F0DEC0809336
:10046000D101D1C0803509F44FC0883509F45DC091
:10047000883409F0D2C0CFC0883909F4C0C0A8F4CC
:10048000883709F467C038F4883609F463C08037C8
:1004900009F460C0C2C0883809F4B1C0803909F4D9
:1004A0005FC0803809F0B9C05BC0803B09F481C0EF
:1004B00038F4803A09F466C0883A09F47AC0ADC0CD
:1004C000803C09F4A0C0883C09F49DC0883B09F435
:1004D00083C0A3C08091F70110C09091F601809174
:1004E000F501981770F5E091F60181E08E0F809389
:1004F000F601F0E0EB52FE4F80818093BB0085EC6B
:100500007FC08093D10187C0E091F60181E08E0F1A
:100510008093F6018091BB00F0E0EB52FE4F8083A8
:100520009091F6018091F50167C0E091F60181E0BC
:100530008E0F8093F6018091BB00F0E0EB52FE4FEE
:1005400080838091D401811166C081E08093D301C2
:1005500084EA5AC083E08093D2011092D001CFCFB9
:100560008091D001803208F04AC0E091D00181E052
:100570008E0F8093D0018091BB00F0E0E055FE4FDC
:100580008083BDCF8091D001803230F4E091D001E2
:10059000F0E0E055FE4F10820E945F006091D001B4
:1005A00070E080EB91E0E0E0F0E009951092D0017E
:1005B0002AC084E08093D2011092AF011092AE0164
:1005C000E0E0F0E009958091AE01811105C081E085
:1005D0008093AE0110928E01E091AF0181E08E0F09
:1005E0008093AF01F0E0E257FE4F80818093BB0023
:1005F0009091AF018091AE01981708F480CF85E803
:100600008093BC000AC085EC8093BC001092D2019C
:1006100004C01092D1010E945F00FF91EF91BF9141
:10062000AF919F918F917F916F915F914F913F918A
:100630002F910F900FBE0F901F9018951F920F9241
:100640000FB60F9211242F933F938F939F93EF93A5
:10065000FF9320914402309145028091460290918F
:1006600047022817390731F48091C1008F7D8093AC
:10067000C10014C0E0914602F0914702EC5FFD4FCB
:100680002081809146029091470201968F739927AD
:1006900090934702809346022093C600FF91EF910A
:1006A0009F918F913F912F910F900FBE0F901F90B0
:1006B00018951F920F920FB60F9211242F934F93FC
:1006C0005F938F939F93EF93FF938091C00082FD80
:1006D0001CC02091C60080918802909189024091AF
:1006E0008A0250918B0201968F73992748175907F8
:1006F00071F0E0918802F0918902E85BFD4F208360
:10070000909389028093880202C08091C600FF9175
:10071000EF919F918F915F914F912F910F900FBE0D
:100720000F901F9018951092FB011092FA0188EE1D
:1007300093E0A0E0B0E08093FC019093FD01A093D2
:10074000FE01B093FF012AE031E03093F9012093DC
:10075000F80110928F0210928E0280939002909373
:100760009102A0939202B09393028AE191E0909358
:100770008D0280938C0288E492E09093990280939A
:10078000980284E092E090939B0280939A0285EC19
:1007900090E090939D0280939C0284EC90E0909373
:1007A0009F0280939E0280EC90E09093A102809340
:1007B000A00281EC90E09093A3028093A20282ECCD
:1007C00090E09093A5028093A40286EC90E0909331
:1007D000A7028093A60284E08093A80283E080931E
:1007E000A90287E08093AA0285E08093AB0281E0B2
:1007F0008093AC028091AE029091AF02892B41F4BC
:100800008CE090E00E949E059093AF028093AE0230
:100810008091AE029091AF029093B1028093B002AA
:1008200008957894E091A002F091A10281E090E017
:100830009C010090AC0202C0220F331F0A94E2F721
:100840002083E0919C02F0919D021082E0919E0233
:10085000F0919F022FEC20831092AD02E091A20252
:10086000F091A30240819C010090A80202C0220FD7
:10087000331F0A94E2F7242B2083E091A202F09127
:10088000A30240819C010090A90202C0220F331FE5
:100890000A94E2F7242B2083E091A202F091A302B4
:1008A00040819C010090AA0202C0220F331F0A94CB
:1008B000E2F7242B2083E091A202F091A302208191
:1008C0000090AB0202C0880F991F0A94E2F780954E
:1008D00082238083EE24E39432E5432E77247A94B6
:1008E00045E0342E55EE652E65EC562E79E4A72EA4
:1008F00071E0B72EE2E02E2E01E010E0C091B002D0
:10090000D091B102E0926B014092420110926901D4
:1009100010926A018091D2018111FCCFE092D20144
:10092000E092D4017092D1011092F6013092F5015B
:10093000E092F7018091F701846A8093F70180913A
:10094000D301813049F41092D3018091F701809353
:10095000BB005092BC0002C06092BC008091D201EA
:100960008130E1F38091F601863018F4F090F601C1
:1009700002C026E0F22E95EDC92E91E0D92EECE6CC
:10098000F1E0D60180E08F1521F09D9191938F5F6A
:10099000FACF10928D01F0928C01FF2009F4B5C0BE
:1009A00083E4882E81E0982E80918D01F812B7C0E3
:1009B00060E088EF91E00E94DB0020916A01213223
:1009C00008F040C08091D2018111FCCF809142019A
:1009D0002092D201E092D4017092D1011092F601DE
:1009E0002093F501E9E4F1E090E0291731F031912D
:1009F000D6013D936D019F5FF8CF1092F701909162
:100A0000F701880F892B8093F7018091D301813002
:100A100049F41092D3018091F7018093BB0050926A
:100A2000BC0002C06092BC008091D2018230E1F330
:100A30008091D1018F3F31F08091D101803211F04E
:100A40008091D1011092690110926A0110926B019C
:100A500080914301803829F41B821A821F821E82F2
:100A600013C0843D38F01B830A831F821E8286E2F6
:100A700091E008C08D3240F41B821A821F830E83DE
:100A80008CE291E00E94CC0180914401803829F4ED
:100A9000198218821D821C8213C0843D38F019838C
:100AA00008831D821C8281E391E008C08D3240F4EE
:100AB000198218821D830C8384E391E00E94CC018B
:100AC00080914801833029F4198618861B861A867E
:100AD0001CC0823039F4198708871B861A8689E37F
:100AE00091E011C0813039F4198618861B870A8776
:100AF0008FE391E008C0811108C0198708871B8720
:100B00000A878BE391E00E94CC01BFEFE1EEF4E0B5
:100B1000B150E040F040E1F700C00000EFCE88EFB8
:100B200091E00E949200D4018D934D01AA16BB065C
:100B300009F43ECF39CFF8940C94C5060F931F9358
:100B4000CF93DF938230910510F482E090E0E09142
:100B5000B402F091B50220E030E0A0E0B0E03097C0
:100B600019F1408151810281138148175907C8F05A
:100B70008417950769F4109731F012960C93129729
:100B800013961C9327C00093B4021093B50222C0A1
:100B90002115310519F04217530718F49A01BD01C8
:100BA000EF01DF01F801DBCF21153105F9F0281B3A
:100BB000390B2430310580F48A819B8161157105E0
:100BC00021F0FB019383828304C09093B50280934C
:100BD000B402FE01329644C0FE01E20FF31F81937E
:100BE000919322503109398328833AC02091B2026F
:100BF0003091B302232B41F4209102013091030183
:100C00003093B3022093B202209100013091010190
:100C10002115310541F42DB73EB7409104015091A3
:100C20000501241B350BE091B202F091B302E217EB
:100C3000F307A0F42E1B3F0B2817390778F0AC01FF
:100C40004E5F5F4F2417350748F04E0F5F1F5093DC
:100C5000B3024093B2028193919302C0E0E0F0E0CE
:100C6000CF01DF91CF911F910F910895CF93DF9323
:100C7000009709F481C0FC01329713821282A0917F
:100C8000B402B091B502109781F420813181820FB6
:100C9000931F2091B2023091B3022817390751F502
:100CA000F093B302E093B20267C0ED0120E030E0C0
:100CB000CE17DF0740F44A815B819E014115510543
:100CC000F1F0EA01F5CFD383C28340815181840FD3
:100CD000951FC817D90759F488819981840F951FEA
:100CE0000296918380838A819B81938382832115DD
:100CF000310529F4F093B502E093B4023DC0E90157
:100D0000FB83EA8349915991C40FD51FEC17FD0766
:100D100061F480819181840F951F0296E901998386
:100D20008883828193819B838A83E0E0F0E012963E
:100D30008D919C911397009719F0FD01DC01F7CF7D
:100D40008D919C9111979D012E5F3F4F820F931FB4
:100D50002091B2023091B3022817390769F4309715
:100D600029F41092B5021092B40202C013821282CA
:100D7000B093B302A093B202DF91CF910895EE0F2A
:0E0D8000FF1F0590F491E02D0994F894FFCF29
:100D8E000000B602200000000000DB00AE00A6004E
:100D9E00920083008200000000000A01A40193016A
:100DAE00570177014C015249474854004C4546546F
:100DBE0000555000444F574E005A005A20262043EB
:020DCE00000023
:00000001FF
