:100000000C9415030C943D030C943D030C943D0398
:100010000C943D030C943D030C943D030C943D0360
:100020000C943D030C943D030C943D030C944A093D
:100030000C943D030C943D030C943D030C943D0340
:100040000C940B170C943D030C9422160C94E7159A
:100050000C943D030C943D030C943D030C943D0320
:100060000C94D9110C943D03EF03038002CF0300DD
:10007000C130ED0464031281E803850078CB0539B3
:100080002C003402F70120EA020000C00123C10164
:1000900010C5023E28C701863601483701003A01E3
:1000A00055B1020018B603088227F20100260101AB
:1000B000E00F0F312B0C0E084EF1370710030E091D
:1000C00000E10F000E1403110731C148080F0C3175
:1000D000360F118029800000000000003E5B4F5B5E
:1000E0003E3E6B4F6B3E1C3E7C3E1C183C7E3C18DB
:1000F0001C577D571C1C5E7F5E1C00183C1800FFBF
:10010000E7C3E7FF0018241800FFE7DBE7FF3048EC
:100110003A060E2629792926407F050507407F05E6
:10012000253F5A3CE73C5A7F3E1C1C08081C1C3EDD
:100130007F14227F22145F5F005F5F06097F017FCB
:10014000006689956A606060606094A2FFA294086E
:10015000047E040810207E201008082A1C08081CB1
:100160002A08081E101010100C1E0C1E0C30383EF1
:100170003830060E3E0E06000000000000005F0052
:10018000000007000700147F147F14242A7F2A121E
:100190002313086462364956205000080703000004
:1001A0001C2241000041221C002A1C7F1C2A080836
:1001B0003E08080080703000080808080800006049
:1001C000600020100804023E5149453E00427F4035
:1001D0000072494949462141494D331814127F1094
:1001E00027454545393C4A494931412111090736DE
:1001F00049494936464949291E000014000000407B
:100200003400000008142241141414141400412274
:10021000140802015909063E415D594E7C12111223
:100220007C7F494949363E414141227F4141413E1F
:100230007F494949417F090909013E414151737F85
:100240000808087F00417F41002040413F017F08AE
:100250001422417F404040407F021C027F7F0408FF
:10026000107F3E4141413E7F090909063E4151212F
:100270005E7F09192946264949493203017F010356
:100280003F4040403F1F2040201F3F4038403F63D9
:100290001408146303047804036159494D43007F33
:1002A0004141410204081020004141417F04020104
:1002B00002044040404040000307080020545478A6
:1002C000407F284444383844444428384444287FF4
:1002D000385454541800087E090218A4A49C787F4E
:1002E0000804047800447D40002040403D007F1019
:1002F00028440000417F40007C047804787C080496
:1003000004783844444438FC182424181824241849
:10031000FC7C08040408485454542404043F442436
:100320003C4040207C1C2040201C3C4030403C4451
:10033000281028444C9090907C4464544C4400080D
:10034000364100000077000000413608000201023B
:1003500004023C2623263C1EA1A161123A40402003
:100360007A3854545559215555794122545478427C
:10037000215554784020545579400C1E5272123940
:1003800055555559395454545939555454580000F9
:10039000457C410002457D420001457C407D1211B3
:1003A000127DF0282528F07C545545002054547CBB
:1003B000547C0A097F4932494949323A4444443A13
:1003C000324A4848303A4141217A3A424020780046
:1003D0009DA0A07D3D4242423D3D4040403D3C24E9
:1003E000FF2424487E4943662B2FFC2F2BFF09292D
:1003F000F620C0887E090320545479410000447DD2
:10040000413048484A32384040227A007A0A0A721B
:100410007D0D19317D2629292F28262929292630C5
:10042000484D4020380808080808080808382F10E8
:10043000C8ACBA2F102834FA00007B000008142A38
:10044000142222142A14085500550055AA55AA55FD
:10045000AAFF55FF55FF000000FF00101010FF001D
:10046000141414FF001010FF00FF1010F010F0140F
:100470001414FC001414F700FF0000FF00FF141414
:10048000F404FC141417101F10101F101F14141460
:100490001F00101010F0000000001F101010101F9F
:1004A00010101010F010000000FF101010101010AD
:1004B000101010FF10000000FF140000FF00FF00EC
:1004C000001F10170000FC04F41414171017141464
:1004D000F404F40000FF00F714141414141414F7B7
:1004E00000F7141414171410101F101F141414F410
:1004F000141010F010F000001F101F0000001F1457
:10050000000000FC140000F010F01010FF10FF14A9
:100510001414FF141010101F00000000F010FFFF53
:10052000FFFFFFF0F0F0F0F0FFFFFF000000000021
:10053000FFFF0F0F0F0F0F3844443844FC4A4A4A5C
:10054000347E02020606027E027E02635549416342
:100550003844443C04407E201E2006027E0202995C
:10056000A5E7A5991C2A492A1C4C7201724C304AF5
:100570004D4D303048784830BC625A463D3E49497E
:1005800049007E0101017E2A2A2A2A2A44445F4426
:100590004440514A444040444A51400000FF010356
:1005A000E080FF000008086B6B0836123624360620
:1005B0000F090F060000181800000010100030404E
:1005C000FF0101001F01011E00191D1712003C3C14
:1005D0003C3C0000000000010204081020408001A3
:1005E0000204081020010204081020000000002569
:1005F0000028002B00040404040404040402020282
:100600000202020303030303030000000024002787
:10061000002A000000000700020100000304060099
:1006200000000000000000000C1B11241FBECFEFD3
:10063000D8E0DEBFCDBF11E0A0E0B1E0E4EBFEE327
:1006400002C005900D92AA38B107D9F725E0AAE8B3
:10065000B1E001C01D92A83AB207E1F713E0C5E18D
:10066000D3E004C02197FE010E94521FC431D1077C
:10067000C9F70E94521C0C94101E0C940000FC013F
:1006800087A987FD06C0A38DB48D9C9181A9892B74
:100690008C9308950895FC016370668B8481958125
:1006A00026813781613039F0633029F09187808766
:1006B000338722870895318720879387828708951B
:1006C0006F927F928F929F92AF92BF92CF92DF9262
:1006D000EF92FF920F931F93CF93DF93EC014B01A7
:1006E0005A0169013801E881F9810680F781E02D1E
:1006F0000995E881F9810684F785E02D8701960147
:10070000A501B401CE010995A501460D571D415023
:100710005109E881F9810684F785E02D9601B4013D
:10072000CE010995E881F9810484F585E02D9301D6
:10073000A501B401CE010995C80CD91CB6016150C0
:100740007109E881F9810484F585E02D9301A50103
:10075000CE010995E881F9810288F389E02DCE0167
:10076000DF91CF911F910F91FF90EF90DF90CF908D
:10077000BF90AF909F908F907F906F9009948F92D1
:100780009F92AF92BF92CF92DF92EF92FF920F9320
:100790001F93CF93DF934C016B015A01E901DC01F8
:1007A000ED91FC916217730781F40417150724F487
:1007B0008B2D5801042F182F0A191B0998012F5F40
:1007C0003F4F008CF18DE02D12C04017510709F505
:1007D0002617370724F48D2D6901C62FD82F9E01C7
:1007E0002C193D092F5F3F4F028CF38DE02D8701BF
:1007F000A501B601C4010995DF91CF911F910F9119
:10080000FF90EF90DF90CF90BF90AF909F908F9030
:1008100008950680F781E02D0995D401ED91FC91B2
:100820000088F189E02D9E01A501B601C40109955A
:10083000D401ED91FC910288F389E02DC401DF9190
:10084000CF911F910F91FF90EF90DF90CF90BF90CD
:10085000AF909F908F900994EF92FF920F931F9308
:10086000DC011A960D911C911B9718962D913C91C5
:100870001997ED91FC91048CF58DE02D7B0140E002
:1008800050E060E070E009951F910F91FF90EF90AC
:1008900008954F925F926F927F928F929F92AF9244
:1008A000BF92CF92DF92EF92FF920F931F93CF935D
:1008B000DF936C012B015A0139014801DC01ED91F4
:1008C000FC910680F781E02D0995E201640C751C0E
:1008D000D601ED91FC91C615D7055CF40484F5852D
:1008E000E02D87019401A501BE01C601099521965D
:1008F000EFCF0288F389E02DC601DF91CF911F91E0
:100900000F91FF90EF90DF90CF90BF90AF909F90AE
:100910008F907F906F905F904F9009948F929F92ED
:10092000AF92BF92CF92DF92EF92FF920F931F93FD
:10093000CF93DF93EC015B014A016901E881F98102
:100940000680F781E02D099595012C0D3D1D215064
:100950003109E881F9810088F189E02D780184016D
:10096000A401B501CE010995E881F9810288F389D6
:10097000E02DCE01DF91CF911F910F91FF90EF906D
:10098000DF90CF90BF90AF909F908F9009948F92FF
:100990009F92AF92BF92CF92DF92EF92FF920F930E
:1009A0001F93CF93DF93EC015B014A01690178014A
:1009B000E881F9810680F781E02D0995C80CD91CE2
:1009C000860101501109E881F9810088F189E02D43
:1009D0009501A401B501CE010995E881F98102884C
:1009E000F389E02DCE01DF91CF911F910F91FF9000
:1009F000EF90DF90CF90BF90AF909F908F90099431
:100A0000EF92FF920F931F93DC01ED91FC91048C08
:100A1000F58DE02D09951F910F91FF90EF900895AE
:100A20000F931F93DC01ED91FC91028CF38DE02D6F
:100A300009951F910F9108950F931F93DC01ED917C
:100A4000FC91008CF18DE02D09951F910F91089577
:100A5000DC01ED91FC910480F581E02D09942F9249
:100A60003F924F925F926F927F928F929F92AF923E
:100A7000BF92CF92DF92EF92FF920F931F93CF938B
:100A8000DF9300D000D000D0CDB7DEB72C017E833D
:100A90006D836A015901C801FC82EB824801841A06
:100AA000950A97FE03C091948194910835012D8198
:100AB0003E81621A730A77FE03C0719461947108D3
:100AC000681479045CF43A2D2B2D5C01832F922F4E
:100AD0003D812E81DE82CD82C32ED22EAD81BE819C
:100AE000AA16BB065CF43C2D2D2D6C01832F922F92
:100AF0003D812E81BE82AD82A32EB22E85012D8135
:100B00003E81021B130B1C012C183D0837FE03C04D
:100B1000319421943108780117FF03C03FEFE31AA5
:100B2000F30AF594E794C816D9062CF08FEF9FEFDF
:100B30009A83898304C0A1E0B0E0BA83A9832D81A0
:100B40003E81A216B30624F1D201ED91FC910084FE
:100B5000F185E02D2B813C816814790424F44D81CA
:100B60005E81B60103C0A6016D817E81C201099537
:100B7000E218F308F7FE06C029813A81C20ED31E9F
:100B8000E00EF11E8D819E8101969E838D83D7CFCD
:100B900026960FB6F894DEBF0FBECDBFDF91CF9182
:100BA0001F910F91FF90EF90DF90CF90BF90AF908B
:100BB0009F908F907F906F905F904F903F902F907D
:100BC00008958F929F92AF92BF92CF92DF92EF9251
:100BD000FF920F931F93CF93DF935C014B016A0148
:100BE000E90177FD53C0DC0118968D919C9119970E
:100BF000681779070CF04AC0209709F447C037FFFF
:100C000007C0C9010196C80ED91ED195C195D10959
:100C1000F50182859385C816D906C4F5A6014C0F47
:100C20005D1F9A012150310937FD30C0D7FE03C046
:100C3000EA01C12CD12C281739071CF0EC01CC1982
:100C4000DD09D501ED91FC910680F781E02DC5010C
:100C5000099578018E0121E030E0A601B401C501BB
:100C60000E94FD0FD501ED91FC910288F389E02DE2
:100C7000C501DF91CF911F910F91FF90EF90DF9011
:100C8000CF90BF90AF909F908F900994DF91CF91BC
:100C90001F910F91FF90EF90DF90CF90BF90AF909A
:100CA0009F908F9008958F929F92AF92BF92CF9214
:100CB000DF92EF92FF920F931F93CF93DF935C012C
:100CC0006B014A01E90157FD53C0DC011A968D9171
:100CD0009C911B97481759070CF04AC0209709F4BC
:100CE00047C037FF07C0C9010196C80ED91ED1956C
:100CF000C195D109F50180859185C816D906C4F53D
:100D0000A6014C0F5D1F9A012150310937FD30C0FB
:100D1000D7FE03C0EA01C12CD12C281739071CF0DB
:100D2000EC01CC19DD09D501ED91FC910680F7812C
:100D3000E02DC5010995780101E010E09E01A401B4
:100D4000B601C5010E94FD0FD501ED91FC9102880D
:100D5000F389E02DC501DF91CF911F910F91FF9095
:100D6000EF90DF90CF90BF90AF909F908F900994BD
:100D7000DF91CF911F910F91FF90EF90DF90CF9077
:100D8000BF90AF909F908F9008958F929F92AF9257
:100D9000BF92CF92DF92EF92FF920F931F93CF9368
:100DA000DF934C016B015A01E901209709F46CC0F3
:100DB0000115110509F468C037FF07C0C901019684
:100DC000C80ED91ED195C195D109F401A085B18570
:100DD000CA16DB060CF058C017FF07C0C801019601
:100DE000A80EB91E119501951109F401828593850C
:100DF000A816B9060CF048C0F601EC0FFD1FAF01B4
:100E00004150510957FD40C0B501600F711F9B0152
:100E10002150310937FD38C0D7FE03C0EF01C12C86
:100E2000D12CB7FE03C08B01A12CB12C4A175B0754
:100E30001CF0ED01CC19DD09281739071CF08C01D5
:100E40000A191B09D401ED91FC910680F781E02D70
:100E5000C40109959E01A501B601C4010E94FD0FC0
:100E6000D401ED91FC910288F389E02DC401DF915A
:100E7000CF911F910F91FF90EF90DF90CF90BF9097
:100E8000AF909F908F900994DF91CF911F910F9118
:100E9000FF90EF90DF90CF90BF90AF909F908F909A
:100EA0000895EF92FF920F931F93CF93DF9377FDF7
:100EB00034C0DC011896ED91FC9119976E177F07ED
:100EC00064F52115310549F137FF07C0F901319665
:100ED0004E0F5F1F319521953109DC011A96ED9176
:100EE000FC911B974E175F07C4F4EA01C20FD31F92
:100EF000DE011197B7FD11C057FF03C09E0140E00E
:100F000050E0AE17BF071CF09F01241B350B780182
:100F1000890121E030E00E94FD0FDF91CF911F9108
:100F20000F91FF90EF900895EF92FF920F931F9310
:100F3000CF93DF9357FD33C0DC011A96ED91FC91FE
:100F40001B974E175F075CF52115310541F137FFFF
:100F500007C0F90131966E0F7F1F31952195310938
:100F6000DC011896ED91FC9119976E177F07BCF480
:100F7000EB01C20FD31FDE011197B7FD10C077FF41
:100F800003C09E0160E070E0AE17BF071CF09F0138
:100F9000261B370B780101E010E00E94FD0FDF9166
:100FA000CF911F910F91FF90EF9008958F929F9294
:100FB000AF92BF92CF92DF92EF92FF920F931F9367
:100FC000CF93DF9347012115310509F44DC0011579
:100FD000110509F449C037FF07C0F90131966E0FBA
:100FE0007F1F319521953109DC011896AD90BC9099
:100FF00019976A157B05C4F517FF07C0F8013196EC
:101000004E0F5F1F119501951109DC011A96ED91A4
:10101000FC911B974E175F073CF56B01C20ED31E68
:10102000E6012197D7FD20C07A01E00EF11ED7011D
:101030001197B7FD19C077FF03C0960160E070E01B
:1010400057FF03C0870140E050E0CA15DB051CF0E4
:101050009501261B370BAE17BF071CF08F01041B31
:10106000150B74010E94FD0FDF91CF911F910F911D
:10107000FF90EF90DF90CF90BF90AF909F908F90B8
:101080000895CF93DF931F92CDB7DEB7FC01637055
:10109000668B623041F0633079F0613011F088E4A2
:1010A00003C088E20AC088E8898380EF90E09187D6
:1010B000808780E491E008C088EE898380E491E035
:1010C0009187808780EF90E09387828721E0AE014F
:1010D0004F5F5F4F66E3CF010E94A00F0F90DF913B
:1010E000CF9108958F929F92AF92CF92EF92FF92FD
:1010F0000F931F93CF93DF93EC01262F898D9A8D49
:10110000009709F042C06A3059F41D861C862D896B
:101110008E859F8538E0239F800D911D112443C04B
:101120006D3009F4AAC08F898823C9F03C898C8569
:101130009D8546E0349F800D911D11244885598579
:101140004817590764F41D861C863D898E859F8546
:1011500048E0349F800D911D11249F878E87EA8877
:10116000FB88088919894E855F856C857D85AD88EA
:10117000CC88CE010E943F0D2C898C859D8536E060
:10118000239F800D911D11243EC06A3079F41D8685
:101190001C862D89FC013696E4918E859F852E9FB5
:1011A000800D911D11249F878E8767C06D3009F4D3
:1011B00064C0FC0134963491631708F45EC0319624
:1011C000E491E61708F459C0462F431B342FFC0165
:1011D00032968590949047E0349F800C911C1124A6
:1011E000F401329634913196E491332311F0E111F8
:1011F0000DC0F4013496E4912C898C859D85E29F85
:10120000800D911D11249D878C8737C0F401359680
:1012100044915F89552319F15C89E32FF0E0E40FD5
:10122000F11D47FDFA955E9FB0015F9F700D11247F
:101230004C855D85460F571F68857985641775074E
:1012400074F41D861C863D89FC013696E4918E85DA
:101250009F853E9F800D911D11249F878E87EA8870
:10126000FB88088919894E855F856C857D85AD88E9
:10127000CC88CE010E943F0DBCCF81E090E0DF9191
:10128000CF911F910F91FF90EF90CF90AF909F90D3
:101290008F9008951F920F920FB60F921124EF9224
:1012A000FF920F931F932F933F934F935F936F93EF
:1012B0007F938F939F93AF93BF93EF93FF9381E0BF
:1012C0008093690380918C018F5F80938C01809162
:1012D0009002882349F080918A0190918B010196B8
:1012E00090938B0180938A0180919502882349F025
:1012F00080918C0190918D01019690938D01809346
:101300008C0180918C01843609F0C7C010928C0149
:10131000A0919302B09194028D919C911197E091CC
:101320009102F0919202019769F4208531858285BE
:101330009385820F931F803F91050CF4D1C08EE5F9
:1013400091E038C012968D919C911397019771F49A
:101350002481358184859585820F931F803441E0F7
:1013600094070CF4C6C081E691E024C014968D91D8
:101370009C911597019761F420853185828593852D
:10138000A901481B590B57FFBDC087E691E012C069
:1013900016968D919C911797019771F42481358150
:1013A00084859585A901481B590BCA0157FFB3C015
:1013B0008CE691E00E94AB10E0919302F0919402D0
:1013C000808591850197D9F480919002811117C091
:1013D000E0919102F09192028481958190938D0227
:1013E00080938C028085918590938F0280938E02EA
:1013F00081E08093900281E791E00E94AB10E09140
:101400009102F0919202428153818481958166819B
:1014100077814817590729F48085918568177907DE
:1014200051F00485158522853385E12CF12C85E961
:1014300092E00E94C506E0919102F091920204852B
:10144000158522853385448155816085718590EEAF
:10145000E92EFF24FA9485E992E00E94C506809166
:101460009002E0919102F091920240918C02509191
:101470008D0260918E0270918F0204851585228500
:101480003385882321F0E12C88EFF82E02C0E12C6F
:10149000F12C85E992E00E94C50680918A01909125
:1014A0008B018037974151F410928B0110928A0181
:1014B000109290028DE791E00E94AB1080918C0118
:1014C00090918D01803D974079F510928D01109299
:1014D0008C01109295028DE791E00E94AB1024C020
:1014E00037832683248135813383228391878087C4
:1014F00026CF408551855783468333832283958346
:10150000848331CF378326832481358133832283BB
:10151000518740873ACF408551855783468333832F
:1015200022839583848344CFFF91EF91BF91AF9144
:101530009F918F917F916F915F914F913F912F91EB
:101540001F910F91FF90EF900F900FBE0F901F9083
:101550001895FC01A5A1B6A19C9182A589238C9325
:10156000A5A1B6A19C9181A5892B8C9308950F9379
:101570001F93CF93DF93EC018B018DA9811109C0DB
:101580001EBD0DB407FEFDCF0EBD0DB407FEFDCF91
:101590002FC08130E9F480E1E9A1FAA1208117FF91
:1015A00003C09DA1922B02C09EA192239083EBA128
:1015B000FCA120819FA1922B9083EBA1FCA1208113
:1015C00098A592239083000F111F815029F710C016
:1015D000EF8DF8A11083CE010E94A90AEF8DF8A12A
:1015E0000083CE01DF91CF911F910F910C94A90A36
:1015F000DF91CF911F910F910895AF92BF92CF923B
:10160000DF92EF92FF920F931F93CF93DF93EC0142
:1016100077FD38C088859985681779079CF557FD4F
:1016200031C08A859B854817590764F569017A019D
:101630005B01E881F9810680F781E02DCE010995F3
:10164000E881F98106A0F7A1E02D01E010E021E09A
:1016500030E0A701B501CE010995B601CE010E9487
:10166000B70AE881F9810288F389E02DCE01DF9184
:10167000CF911F910F91FF90EF90DF90CF90BF908F
:10168000AF900994DF91CF911F910F91FF90EF9050
:10169000DF90CF90BF90AF900895EF92FF920F939D
:1016A0001F93CF93DF93EC0177FD22C08885998546
:1016B00068177907ECF457FD1BC08A859B8548178E
:1016C0005907B4F47901E881F98106A0F7A1E02D6A
:1016D00001E010E021E030E0CE010995B701CE0134
:1016E000DF91CF911F910F91FF90EF900C94B70A6B
:1016F000DF91CF911F910F91FF90EF900895AF92DE
:10170000BF92CF92DF92EF92FF920F931F93CF93EE
:10171000DF93EC015B016A01215031097901E60E8A
:10172000F71E01501109040F151F6AE20E94E80F0D
:10173000B501CE010E94B70AB701CE010E94B70AD7
:101740006BE2CE010E94E80FB601CE010E94B70AFB
:10175000B801CE010E94B70A6CE2CE01DF91CF91B1
:101760001F910F91FF90EF90DF90CF90BF90AF90BF
:101770000C94E80FFC0185A981110FC09CB59C7FDA
:101780009CBD9DB591609DBD9CB59F7D9CBD2CB5BC
:10179000237F95A1822F892B8CBD0895CF93DF9352
:1017A000EC010E94BA0B8FA987FD06C0EB8DFC8D62
:1017B00090818AA989238083DF91CF910895BF9278
:1017C000CF92DF92EF92FF920F931F93CF93DF930D
:1017D000EC016A017B01452B462B472B31F4C12CD0
:1017E00022E1D22E2AE7E22EF12C8FA987FD07C035
:1017F00061E00E94A91661E08FA90E945C1661E079
:1018000088AD0E94A91661E088AD0E945C168DA982
:1018100081111DC0C9A2DAA2EBA2FCA21DA21EA2C8
:101820001FA218A661E08AE00E945C1661E08AE0CF
:101830000E94A9168CB580618CBD8CB580648CBD6E
:1018400061E08DE00E94A91661E08BE016C0813056
:10185000B9F461E08AA50E94A91660E08AA50E94F9
:101860005C1661E08CA50E94A91660E08CA50E9420
:101870005C168BA587FD36C060E00E94A91632C0B9
:1018800005EF15E0F12CF8018491E82FF0E0EE0F60
:10189000FF1FE551FA4F859194912F8D38A128179C
:1018A000390741F461E08F2D0E94A91660E08F2D69
:1018B0000E945C16F3940F5F1F4FF4E1FF12E3CF19
:1018C00061E08EA50E94A91661E08EA50E945C16BB
:1018D0008FA587FD07C061E00E94A91661E08FA572
:1018E0000E945C168EA987FD21C061E00E94A916A6
:1018F00061E08EA90E945C1664E670E080E090E0F2
:101900000E94E51660E08EA90E945C1664E670E015
:1019100080E090E00E94E51661E08EA90E945C16CE
:1019200068EC70E080E090E00E94E5168EA987FFE9
:1019300010C020E040E050E061E0CE010E94A00F26
:101940002FEF82E597E0215080409040E1F700C002
:10195000000088E6E82E80E0F82EC7010196F70126
:101960001491112309F44BC0FC01B4900B2D0F7797
:10197000CE010E94BA0B8FA987FD06C0EB8DFC8DAE
:1019800090818AA989238083ED8DFE8D90818CA919
:1019900089238083612FCE010E94730FED8DFE8D10
:1019A00090818BA9892B8083C12CD12C10E0C0168B
:1019B000D10664F4F6013296EE0DFF1D6491CE015E
:1019C0000E94730FFFEFCF1ADF0AF1CF8FA987FDB7
:1019D00006C0EB8DFC8D908189A9892B80830E5FD9
:1019E0001F4FE00EF11EB7FEB8CF2FEF82E597E054
:1019F000215080409040E1F700C00000AECF80EF62
:101A000090E09987888780E491E09B878A87DF91BF
:101A1000CF911F910F91FF90EF90DF90CF90BF90EB
:101A2000089585ED8093BC008091BC0084FDFCCFBF
:101A30001092B00108950895E091AE018091AD013A
:101A4000E81730F4F0E0E357FE4F808190E008950E
:101A50008FEF9FEF08959091AE018091AD0198179F
:101A600050F4E92FF0E0E357FE4F208130E09F5F14
:101A70009093AE0102C02FEF3FEFC90108952F925E
:101A80003F924F925F926F927F928F929F92AF920E
:101A9000BF92CF92DF92EF92FF920F931F93CF935B
:101AA000DF93CDB7DEB76B970FB6F894DEBF0FBEEE
:101AB000CDBF9B8F8A8F1B014A01D22E19870887C1
:101AC0003701A982DC0159962D913C915A97211535
:101AD000310509F0FFC018968D919C9119976817F0
:101AE00079070CF0E7C11A968D919C911B974817C6
:101AF00059070CF0DFC1EC2DF0E0FB83EA839B017A
:101B000046E0C49E200D311D11243D872C871216FE
:101B100013060CF0CFC16A2D70E07B876A8783E0E3
:101B2000660F771F8A95E1F77F876E87CB01880D57
:101B3000991D181619060CF0BDC158968C9181118B
:101B400004C08FEA8D1508F4D394AA8DBB8DED9156
:101B5000FC9111970680F781E02DCD010995B5E044
:101B6000DB9EC0011124EC2DF0E0F98BE88B910194
:101B70002B5F3F4F3B8B2A8B3D822C822101AC0196
:101B8000421953095D8B4C8B7981672F70E07F8BF5
:101B90006E8BC4010896998F888FEC89FD89E40DBE
:101BA000F51DE952FF4FD49054019F828E82D0FEE2
:101BB00016C0AA8DBB8DED91FC91B1E0CB1209C08E
:101BC0002981213031F40084F185E02D2885398583
:101BD00019C00284F385E02DE884F9841DC048858E
:101BE00059854615570519F1AA8DBB8DED91FC91CC
:101BF000B1E0CB120DC02981213051F40084F18570
:101C0000E02D9301A501B2018A8D9B8D09950FC02E
:101C10000284F385E02D73010A851B852A813B81AF
:101C20004E815F816C817D818A8D9B8D0995D694D3
:101C30003FEFA31AB30A4E815F816E897F89460FF9
:101C4000571F5F834E83888D998DA816B90609F0BA
:101C5000AECF9FEF491A590AAC81BD81E889F98955
:101C6000AE0FBF1FBD83AC832A893B894216530642
:101C700009F093CF488559854615570509F4F8C0F2
:101C8000AA8DBB8DED91FC91B1E0CB1211C02981E1
:101C9000213071F4B1016B5F7F4F0484F585E02D35
:101CA000830128E030E0A4018A8D9B8D0995E0C076
:101CB0006C857D854A815B81641B750B0284F3858D
:101CC000E02D73010E851F859A01A4018A8D9B8DDD
:101CD0000995CEC0F9013496E491DE1AF9013296E5
:101CE00085919491B7E0DB9E800D911D1124F9013F
:101CF000259134913B8B2A8BFC012591349159011C
:101D0000FC0132965490319634913C87329674900F
:101D10003196149141E04C1518F05981523068F019
:101D2000672D072C000C770B7D836C83812F012E90
:101D3000000C990B9B838A8304C01B821A821D822C
:101D40001C82AA8DBB8DED91FC9111970680F781C5
:101D5000E02DCD010995412CD12C612CF981EF2F7B
:101D6000F0E0FF83EE832C2D30E03B872A87A4012F
:101D7000410F511D17FD5A955F8B4E8BB101670DB9
:101D8000711D77FC7A95798F688F7C85671608F0CE
:101D90006FC0262D30E04A815B81420F531FAE8118
:101DA000BF81A49FC001A59F900DB49F900D1124E9
:101DB000F401E80FF91FF98BE88B842D712C4E8903
:101DC0005F89420F531F5D8B4C8B751408F04DC01B
:101DD00051E0580F5E87877041F4C5010196EA898A
:101DE000FB89EA0DFB1DD4905C01D7FE3AC061E08F
:101DF000C61216C07981713099F4AA8DBB8DED9110
:101E0000FC9111970084F185E02D288539854C8956
:101E10005D89688D798D670D711DCD01099521C092
:101E20008C819D81870D911DEA85FB858E9FB00178
:101E30008F9F700D9E9F700D1124620D731DAA8DD2
:101E4000BB8DED91FC9111970284F385E02DE88420
:101E5000F9840E811F812A853B8548895989CD01E6
:101E60000995DD0C73948E85B0CF450C63948DCFAE
:101E7000AA8DBB8DED91FC9111970288F389E02D1D
:101E8000CD016B960FB6F894DEBF0FBECDBFDF91CC
:101E9000CF911F910F91FF90EF90DF90CF90BF9067
:101EA000AF909F908F907F906F905F904F903F90FA
:101EB0002F9009946B960FB6F894DEBF0FBECDBF7E
:101EC000DF91CF911F910F91FF90EF90DF90CF9016
:101ED000BF90AF909F908F907F906F905F904F904A
:101EE0003F902F900895FC0185A9811105C06EBD1A
:101EF0000DB407FEFDCF08958130E1F488E0A1A183
:101F0000B2A12C9167FF03C095A1922B02C096A1AC
:101F100092239C93A3A1B4A12C9197A1922B9C9363
:101F2000660FA3A1B4A12C9190A592239C938150FC
:101F300031F70895A78DB0A16C93CF010C94A90A35
:101F4000CF92DF92EF92FF920F931F93CF93DF9385
:101F5000EC01162F6A01E22E0E94BA0B8FA987FDB1
:101F600006C0EB8DFC8D90818AA989238083ED8D3D
:101F7000FE8D90818CA989238083612FCE010E94E0
:101F8000730FED8DFE8D90818BA9892B8083860147
:101F9000F12CC8018C199D098E159F053CF4F801A0
:101FA00061918F01CE010E94730FF3CF8FA987FD3E
:101FB00006C0EB8DFC8D908189A9892B8083DF91F0
:101FC000CF911F910F91FF90EF90DF90CF900895E8
:101FD000CF93DF93EC01ED8DFE8D90818CA9892349
:101FE0008083CE010E94730FED8DFE8D90818BA9B1
:101FF000892B8083DF91CF9108958F929F92AF922A
:10200000BF92CF92DF92EF92FF920F931F93CF93E5
:10201000DF93EC014901BE2CAF2CE881F98106A0C9
:10202000F7A1E02D09959401D8010E94341F611594
:1020300071058105910509F481C02DA921110FC0F9
:10204000615071098109910908F478C0AEBC0DB4E2
:1020500007FEFDCFBEBC0DB407FEFDCFF1CF213092
:1020600009F03FC0615071098109910908F466C007
:102070003A2D28E0E9A1FAA1508137FF03C04DA114
:10208000452B02C04EA145234083EBA1FCA150810A
:102090004FA1452B4083EBA1FCA1508148A54523CE
:1020A0004083330F215031F73B2D28E0E9A1FAA1FD
:1020B000508137FF03C04DA1452B02C04EA14523DF
:1020C0004083EBA1FCA150814FA1452B4083EBA1A4
:1020D000FCA1508148A545234083330F215031F79F
:1020E000C1CFFE1017C0EF8DF8A1F0826B017C010B
:1020F000CC0CDD1CEE1CFF1CC114D104E104F10466
:10210000E9F0CE010E94A90A81E0C81AD108E108CD
:10211000F108F2CF6B017C01EF8DF8A1A082CE0116
:102120000E94A90AEF8DF8A1B082CE010E94A90AEF
:1021300021E0C21AD108E108F10871F7DF91CF91CF
:102140001F910F91FF90EF90DF90CF90BF90AF90D5
:102150009F908F9008950F931F93CF93DF930097D5
:1021600079F0FC0101900020E9F73197AF01481B9D
:10217000590BBC018AE692E00E94B3138C0102C0A5
:1021800000E010E06DE08AE692E00E941913EC0195
:102190006AE08AE692E00E941913C00FD11F8C0FEB
:1021A0009D1FDF91CF911F910F9108953F924F9204
:1021B0005F926F927F928F929F92AF92BF92CF92D7
:1021C000DF92EF92FF920F931F93CF93DF93CDB7E0
:1021D000DEB72C970FB6F894DEBF0FBECDBF5C0103
:1021E000DC015B968D909C905C971696CD90DD906F
:1021F000ED90FC901997C114D104E104F10439F079
:10220000BFEFCB1ADB0AEB0AFB0A312C07C0F40143
:10221000C080D180E280F38033243394F40181853F
:102220009285A385B4859C01AD012F5F3F4F4F4F31
:102230005F4F29873A874B875C87260137011D82CC
:102240001E821F821886F40181859285A385B4853C
:102250002D813E814F815885281739074A075B0732
:1022600008F063C089859A85AB85BC858C159D0572
:10227000AE05BF0550F482E0C82ED12CE12CF12C24
:1022800092E0492E512C612C712C9E012F5F3F4F03
:10229000B701A601C4010E94891A882309F445C028
:1022A00089819A81AB81BC81892B8A2B8B2B41F050
:1022B000260137019FEF491A590A690A790A05C0B0
:1022C000C414D504E604F70491F02D813E814F81BA
:1022D00058852F5F3F4F4F4F5F4F2D833E834F8376
:1022E00058873FEFC31AD30AE30AF30AACCF0FEFC4
:1022F0001FEF2FEF3FE0B301A201C4010E94E819D4
:10230000882399F0D50116964D915D916D917C9140
:102310001997411551056105710549F09301820135
:10232000C4010E94E819811102C080E02AC0D501D1
:1023300016964D925D926D927C921997332051F0D2
:10234000D301C2010196A11DB11DF40180839183C7
:10235000A283B383F5018789908DA18DB28D892BDE
:102360008A2B8B2B69F4D50157964D925D926D9215
:102370007C925A9714968C911497806814968C933B
:1023800081E02C960FB6F894DEBF0FBECDBFDF9173
:10239000CF911F910F91FF90EF90DF90CF90BF9062
:1023A000AF909F908F907F906F905F904F903F90F5
:1023B00008951F920F920FB60F9211242F933F93FF
:1023C0004F935F936F937F938F939F93AF93BF933D
:1023D000EF93FF938091B900887F803609F49CC009
:1023E00068F5883209F45BC090F4803109F454C078
:1023F00038F4882309F4EFC0883009F44DC0EFC0E9
:10240000883109F44CC0803209F45DC0E8C08034E2
:1024100009F468C048F4803309F455C0883309F0E2
:10242000DEC08093AF01D1C0803509F44FC088353C
:1024300009F45DC0883409F0D2C0CFC0883909F4EE
:10244000C0C0A8F4883709F467C038F4883609F4A6
:1024500063C0803709F460C0C2C0883809F4B1C0D5
:10246000803909F45FC0803809F0B9C05BC0803B97
:1024700009F481C038F4803A09F466C0883A09F456
:102480007AC0ADC0803C09F4A0C0883C09F49DC06E
:10249000883B09F483C0A3C08091D50110C09091FE
:1024A000D4018091D301981770F5E091D40181E0B7
:1024B0008E0F8093D401F0E0ED54FE4F8081809325
:1024C000BB0085EC7FC08093AF0187C0E091D40151
:1024D00081E08E0F8093D4018091BB00F0E0ED5439
:1024E000FE4F80839091D4018091D30167C0E09129
:1024F000D40181E08E0F8093D4018091BB00F0E085
:10250000ED54FE4F80838091B201811166C081E05D
:102510008093B10184EA5AC083E08093B0011092A5
:102520001A03CFCF80911A03803208F04AC0E0919D
:102530001A0381E08E0F80931A038091BB00F0E0B4
:10254000E650FD4F8083BDCF80911A03803230F476
:10255000E0911A03F0E0E650FD4F10820E94110D49
:1025600060911A0370E08AEF92E0E0E0F0E00995F4
:1025700010921A032AC084E08093B0011092F902ED
:102580001092F802E0E0F0E009958091F8028111E4
:1025900005C081E08093F8021092D802E091F90220
:1025A00081E08E0F8093F902F0E0E852FD4F8081C8
:1025B0008093BB009091F9028091F802981708F47B
:1025C00080CF85E88093BC000AC085EC8093BC0076
:1025D0001092B00104C01092AF010E94110DFF9142
:1025E000EF91BF91AF919F918F917F916F915F918B
:1025F0004F913F912F910F900FBE0F901F90189504
:10260000613298F42091B001243089F46093F8028B
:10261000282FA8EDB2E0FC018E2F821B861718F43C
:1026200081918D93F9CF80E0089581E0089582E053
:1026300008950F931F93CF93DF93FC01A685B78571
:102640008D01005C1F4FE8018881998101968F738D
:102650009927AD014E5B5F4FEA0128813981281728
:102660003907D1F3E80128813981A20FB31F6C9398
:10267000A685B785A05CBF4F11969C938E93A689C3
:10268000B7892C9181E090E0078C02C0880F991FD8
:102690000A94E2F7822B8C9381E081A30488F58968
:1026A000E02D80818064808381E090E0DF91CF9194
:1026B0001F910F910895FC0181A1882329F0A4891D
:1026C000B5898C9186FFFBCF11A20895FC01A485EA
:1026D000B585FD01E05CFF4F20813181329680811C
:1026E00091812817390779F080819181A80FB91F4E
:1026F0008C91208131812F5F3F4F2F73332731839E
:10270000208390E008958FEF9FEF0895DC011C96E1
:10271000ED91FC911D97DF01A05CBF4F2D913C9185
:10272000119712968D919C9111972817390739F0BE
:102730008D919C91E80FF91F808190E008958FEFB3
:102740009FEF0895FC0124853585F901E05CFF4F7A
:1027500080819181329620813181821B930B8F730E
:10276000992708950895CF92DF92EF92FF920F93E9
:102770001F93CF93DF936C01EB017B01E40EF51EF9
:1027800000E010E0CE15DF0561F06991D601ED9112
:10279000FC910190F081E02DC6010995080F191FE9
:1027A000F1CFC801DF91CF911F910F91FF90EF9072
:1027B000DF90CF9008953FB7F89480917203909185
:1027C0007303A0917403B091750326B5A89B05C04F
:1027D0002F3F19F00196A11DB11D3FBFBA2FA92FA0
:1027E000982F8827820F911DA11DB11DBC01CD011D
:1027F00042E0660F771F881F991F4A95D1F7089509
:102800004F925F926F927F92AF92BF92CF92DF9280
:10281000EF92FF920F931F93CF93DF9300D000D0DE
:102820001F92CDB7DEB78C016D83DC0115968C91BC
:102830001597813009F054C014968C9181FF50C0D7
:1028400057C0258530E0275F3F4F2A013B01B1E0AB
:102850004B1A510861087108022E04C076946794DF
:10286000579447940A94D2F7D701C6010197A1095A
:10287000B10904C0B695A795979587952A95D2F783
:1028800084159505A605B70508F076C0F8014789B7
:10289000508D618D728D46835783608771872C01BF
:1028A0003D015801F6E0AF0EB11C41145104610422
:1028B000710409F46BC0D80116964D915D916D912C
:1028C0007C91199795015B968D919C915C970E94E4
:1028D000891AB1E04B1A5108610871088111E5CFDE
:1028E00081E090E0F8019383828380E090E05BC117
:1028F00082FF0EC0F8014285538564857585C388C3
:10290000D488E588F6884C155D056E057F05E9F4E9
:10291000D8011A964D915D916D917C911D975B96B2
:10292000ED91FC915C97948191506A017B0189E063
:10293000F694E794D794C7948A95D1F79C217A01AD
:10294000B1E0FB22911173C027C0D801038CF48D34
:10295000E02DC114D104E104F10409F072CF169600
:102960001D921D921D921C9219971A961D921D92EE
:102970001D921C921D9714C0452B462B472B09F422
:1029800085CF84199509A609B70989CFF801C286B0
:10299000D386E486F586BCCFE114F10409F047C084
:1029A000D80116964D915D916D917C9119974115C5
:1029B00051056105710559F457968D919D910D90C2
:1029C000BC91A02D0097A105B10549F522C09E013B
:1029D0002F5F3F4FCF010E94891A882309F485CFCA
:1029E00089819A81AB81BC81F801238D348DF901F5
:1029F0002789203129F448EF5FEF60E070E004C0E0
:102A000048EF5FEF6FEF7FE084179507A607B707E2
:102A100030F0C8010E94D610811106C061CFF801C4
:102A200086839783A087B187E12CF12C90E0D801B1
:102A30005B96ED91FC915C9716964D905D906D9034
:102A40007C901997B2E04B1A51086108710805840F
:102A500004C0440C551C661C771C0A94D2F74685AA
:102A6000578560897189440E551E661E771E490E72
:102A7000511C611C711CE114F10409F5F801428537
:102A800053856485758583899489A589B689481796
:102A900059076A077B0798F00E94DA18882309F41F
:102AA0001FCF40920001509201016092020170928A
:102AB000030180917C03816080937C0308C041E026
:102AC000C301B2010E941119882309F409CFF7014B
:102AD000E358FC4F8D818083F80182859385A4851E
:102AE000B5850196A11DB11D82879387A487B587FF
:102AF0004389548965897689481759076A077B078E
:102B000038F4838B948BA58BB68B84818068848307
:102B1000D80114968C9183FD03C081E090E043C0FE
:102B2000F8019581992309F4DBCE87FF37C06685CC
:102B300077858089918941E00E941119882309F4E1
:102B4000CFCED8015296EC91B0E2EB9FF001112468
:102B5000E358FC4F309709F4C3CED80115968C91F9
:102B60001597823050F453964D915D916D917C9103
:102B70005697448F558F668F778FD80157964D9112
:102B80005D916D917C915A97538F428F758B648BB9
:102B900014968C9114978F7714968C930E94DA1860
:102BA0008111BBCF9DCE0F900F900F900F900F9083
:102BB000DF91CF911F910F91FF90EF90DF90CF9019
:102BC000BF90AF907F906F905F904F9008951F924D
:102BD0000F920FB60F9211242F933F938F939F93D1
:102BE000EF93FF93209122023091230280912402DF
:102BF000909125022817390731F48091C1008F7D0B
:102C00008093C10014C0E0912402F0912502EE519E
:102C1000FE4F2081809124029091250201968F73AE
:102C2000992790932502809324022093C600FF9158
:102C3000EF919F918F913F912F910F900FBE0F9029
:102C40001F9018951F920F920FB60F9211242F9379
:102C50004F935F938F939F93EF93FF938091C00067
:102C600082FD1CC02091C60080916602909167028F
:102C7000409168025091690201968F739927481715
:102C8000590771F0E0916602F0916702EA5DFD4F2D
:102C90002083909367028093660202C08091C600F1
:102CA000FF91EF919F918F915F914F912F910F9095
:102CB0000FBE0F901F90189590E0FC01ED5EF94F4C
:102CC0002491FC01E952FA4F3491FC01EB50FA4F88
:102CD000E491EE2309F43CC0222339F1233091F032
:102CE00038F42130A9F0223001F584B58F7D12C06F
:102CF000263091F02730A1F02430B9F48091800083
:102D00008F7D03C0809180008F77809380000DC0FD
:102D100084B58F7784BD09C08091B0008F7703C0E0
:102D20008091B0008F7D8093B000F0E0EE0FFF1F28
:102D3000E551FA4FA591B4919FB7F894611104C081
:102D40008C913095382302C0EC913E2B3C939FBF71
:102D50000895CF93DF9390E0FC01E952FA4F24915C
:102D6000FC01EB50FA4F8491882361F190E0880FC9
:102D7000991FFC01E75FF94FC591D491FC01E55122
:102D8000FA4FA591B491611109C09FB7F894888159
:102D9000209582238883EC912E230BC0623061F44E
:102DA0009FB7F8948881322F309583238883EC91E4
:102DB0002E2B2C939FBF06C08FB7F894E8812E2B43
:102DC00028838FBFDF91CF910895CF92DF92EF924A
:102DD000FF92CF93DF936B017C010E94DB13EB0129
:102DE000C114D104E104F10479F00E94DB136C1BDF
:102DF0007D0B683E7340A0F381E0C81AD108E1085A
:102E0000F108C851DC4FECCFDF91CF91FF90EF90EC
:102E1000DF90CF9008951F920F920FB60F9211245A
:102E20002F933F938F939F93AF93BF93809176039C
:102E300090917703A0917803B09179033091710359
:102E400023E0230F2D3720F40196A11DB11D05C0ED
:102E500026E8230F0296A11DB11D209371038093D4
:102E6000760390937703A0937803B09379038091CE
:102E7000720390917303A0917403B091750301964E
:102E8000A11DB11D8093720390937303A0937403EB
:102E9000B0937503BF91AF919F918F913F912F9107
:102EA0000F900FBE0F901F9018958091AD0190E08C
:102EB0002091AE01821B910908958EBD0DB407FECD
:102EC000FDCF08950F931F93CF93DF938B012FB7FF
:102ED000F8948091760390917703A0917803B09154
:102EE00079032FBFEC018FEF0E945D178EB58F3FE6
:102EF00091F02FB7F8948091760390917703A09189
:102F00007803B09179032FBF8C1B9D0B801791071D
:102F100050F380E001C081E0DF91CF911F910F91CC
:102F20000895CF92DF92EF92FF920F931F93CF936A
:102F3000DF937C01CB018A0120919F05222389F038
:102F4000EB016B01C40ED51ECC15DD0569F069914E
:102F5000D701ED91FC910190F081E02DC701099519
:102F6000F3CF642F0E940013C801DF91CF911F910E
:102F70000F91FF90EF90DF90CF900895CF93DF9364
:102F80001F92CDB7DEB7698320919F052223D1F030
:102F900020919E05203240F021E030E0FC01338397
:102FA000228380E090E015C080919D05E82FF0E03D
:102FB000E358FA4F998190838F5F80939D058093AA
:102FC0009E0505C061E0CE0101960E94001381E0DC
:102FD00090E00F90DF91CF91089561E0FC01848132
:102FE0000C945C16CF93DF93EC018FEF8EBD2FEF27
:102FF0008F819885AC014F5F5F4F58874F83813039
:10300000924028F40DB407FEFDCF2EBDF1CF0DB4D4
:1030100007FEFDCFCE010E94ED171E82DF91CF91FA
:1030200008958F929F92AF92BF92FF920F931F933A
:10303000CF93DF93EC01F62E49015A018E8188234C
:1030400019F0CE010E94F21760E08C810E945C169C
:103050006CE271E0CE010E9462178F2D80640E94A5
:103060005D1708E110E0D501C401002E04C0B6953B
:10307000A795979587950A94D2F70E945D170850F7
:103080001109083F8FEF180771F7FF2029F088E03A
:10309000F81204C087E803C085E901C08FEF0E94E1
:1030A0005D1710E08FEF0E945D178EB58A8787FF4E
:1030B00004C01F3F11F01F5FF5CFDF91CF911F912B
:1030C0000F91FF90BF90AF909F908F9008950F93B6
:1030D0001F93CF93DF93EC018901411551056105E1
:1030E000710511F482E146C08B85833039F089E0A7
:1030F000440F551F661F771F8A95D1F79A01AB01C0
:1031000068E1CE010E941118882311F084E032C0DA
:103110008EEF8EBDF801C8019E5F0DB407FEFDCF96
:1031200020812EBD0DB407FEFDCF21812EBD32962C
:103130008E179F0791F70DB407FEFDCF8FEF0E940A
:103140005D178FEF0E945D178FEF0E945D178EB5A0
:103150008A878F71853031F081E18D83CE010E94A5
:10316000ED1709C068E572E0CE010E946217811177
:1031700007C085E18D83CE010E94ED1780E015C068
:1031800020E030E0A9016DE0CE010E94111881110C
:1031900006C08FEF0E945D178EB5882311F084E181
:1031A000E9CFCE010E94ED1781E0DF91CF911F9111
:1031B0000F91089580917C03882389F1409100014B
:1031C0005091010160910201709103012DE733E0FC
:1031D00080E090E00E946718811102C080E00895AD
:1031E0004091A0055091A1056091A2057091A305A1
:1031F000411551056105710581F02DE733E080E04F
:1032000090E00E946718882349F31092A00510925D
:10321000A1051092A2051092A30510927C0381E0F3
:103220000895CF92DF92EF92FF921F93CF93DF9397
:103230006B017C01142F8091000190910101A091FC
:103240000201B09103018C159D05AE05BF0509F47F
:10325000B1C00E94DA18882309F4B2C08091060038
:103260008823A1F08091000090910100A0910200BC
:10327000B0910300C816D906EA06FB0639F480911E
:10328000070090910800892B09F457C0C0920000F4
:10329000D0920100E0920200F092030080910B00B6
:1032A000A7019601833039F089E0220F331F441FB4
:1032B000551F8A95D1F761E180E090E00E941118D6
:1032C000882321F083E08093050066C02FB7F8942F
:1032D0008091760390917703A0917803B091790360
:1032E0002FBFEC018FEF0E945D178EB580930A000F
:1032F0008F3F91F42FB7F8948091760390917703E4
:10330000A0917803B09179032FBF8C1B9D0B8D3258
:10331000914040F38FE003C08E3F41F08DE08093F9
:10332000050080E090E00E94ED1736C01092080082
:103330001092070081E0809306008FEF8EBDEDE7CD
:10334000F3E08CE795E02FEF0DB407FEFDCF3EB51F
:1033500031932EBD8E179F07B9F70DB407FEFDCF31
:103360008EB580937C0580910700909108009E5F48
:10337000909308008093070020910900222319F000
:103380008115924078F080910600882359F080E002
:1033900090E00E94F21706C080E090E00E94ED17D6
:1033A00080E00EC0C0920001D0920101E0920201C3
:1033B000F092030140917C03412B40937C0381E018
:1033C000DF91CF911F91FF90EF90DF90CF90089504
:1033D0004F925F926F927F928F929F92AF92BF9225
:1033E000CF92DF92EF92FF920F931F93CF93DF93D1
:1033F000EC01423051056105710510F480E078C0A0
:1034000089859A85AB85BC850196A11DB11D841760
:103410009507A607B70790F3CB88DC88ED88FE8870
:103420008F89803129F4BB27A72F962F852F09C0BC
:10343000DB01CA01E7E0B695A79597958795EA95D0
:10344000D1F7480159012A013B01C80ED91EEA1ED5
:10345000FB1E8091000190910101A0910201B091A9
:103460000301C816D906EA06FB0681F48F8980316C
:10347000A9F4B301A201552766277727440F551FEA
:10348000FA01E358FC4F9182808219C040E0C701E5
:10349000B6010E9411198111E9CFB0CFB301A20189
:1034A0004F77552766277727440F551F440F551F21
:1034B000FA01E358FC4F80829182A282B38280910C
:1034C0007C03816080937C038A89823080F08D81C7
:1034D0009E81AF81B885C80ED91EEA1EFB1EC09220
:1034E000A005D092A105E092A205F092A30581E08B
:1034F000DF91CF911F910F91FF90EF90DF90CF90D0
:10350000BF90AF909F908F907F906F905F904F9003
:1035100008958F929F92AF92BF92CF92DF92EF92D7
:10352000FF920F931F93CF93DF93FC0181859285C8
:10353000A385B4850196A11DB11D84179507A60723
:10354000B70710F480E05BC083889488A588B688AC
:103550008789803129F4BB27A72F962F852F09C093
:10356000DB01CA01C7E0B695A79597958795CA95DF
:10357000D1F7E9016A017B018F01BC01CD01680D22
:10358000791D8A1D9B1D8090000190900101A090E3
:103590000201B0900301681579058A059B0591F435
:1035A000F80187898031A1F4DD24EE24FF24C601CF
:1035B000880F991FFC01E358FC4F80819181A0E0A6
:1035C000B0E018C040E00E9411198111E9CFBACFD4
:1035D000E894C7F8DD24EE24FF24C601880F991F64
:1035E000880F991FFC01E358FC4F80819181A281D3
:1035F000B381BF7088839983AA83BB8381E0DF9105
:10360000CF911F910F91FF90EF90DF90CF90BF90DF
:10361000AF909F908F9008951092D9011092D80189
:1036200088EE93E0A0E0B0E08093DA019093DB01B4
:10363000A093DC01B093DD012EE031E03093D7019F
:103640002093D6011092200310922103109224039C
:103650001092260342E050E060E070E040932703C0
:10366000509328036093290370932A0310923E031A
:1036700010924803109247032EE131E03093460345
:103680002093450310924A0310926D0210926C022F
:1036900080936E0290936F02A0937002B0937102B8
:1036A00086E291E090936B0280936A0286E292E058
:1036B000909377028093760282EE91E09093790264
:1036C0008093780285EC90E090937B0280937A025D
:1036D00084EC90E090937D0280937C0280EC90E0FB
:1036E00090937F0280937E0281EC90E09093810220
:1036F0008093800282EC90E0909383028093820218
:1037000086EC90E0909385028093840284E080931D
:10371000860283E08093870287E08093880285E0B9
:103720008093890281E080938A021092980210921D
:10373000970240EF50E050939A024093990220E4A0
:1037400031E030939C0220939B0250939E02409361
:103750009D023093A00220939F021092AB02109220
:10376000A2021092A1021092A4021092A3028093CE
:10377000AA028093A9022FEF3FEF3093A802209373
:10378000A7023093A6022093A5028093AC02109268
:10379000AD021092AF021092AE021092CA028FEFE9
:1037A0008093CB028AE08093CC0289E08093CD02A3
:1037B0001092CF021092CE021092D1021092D0023B
:1037C0001092D2021092D3021092D4021092D5021B
:1037D0001092D6021092D70288E693E09093B50239
:1037E0008093B402EEEFF5E0E491F0E0EE0FFF1FFE
:1037F000E551FA4F859194919093B3028093B20270
:10380000E0EEF5E084918093C802EFEFF5E0E491FB
:10381000F0E0EE0FFF1FE551FA4F25913491309300
:10382000B1022093B002E1EEF5E0E491E093C6022C
:10383000E095E093C702E82FE095E093C90286E3A4
:1038400091E0909396028093950280916603909107
:103850006703892B41F48CE090E00E94131E909343
:10386000670380936603809166039091670390934A
:103870009402809393028091640390916503892B55
:1038800041F480E190E00E94131E909365038093C1
:1038900064038091640390916503909392028093F6
:1038A0009102089578942FEF80E792E021508040B4
:1038B0009040E1F700C00000E0917E02F0917F02AD
:1038C00081E090E09C0100908A0202C0220F331F29
:1038D0000A94E2F72083E0917A02F0917B02108251
:1038E000E0917C02F0917D022FEC208310928B02FC
:1038F000E0918002F091810240819C01009086025B
:1039000002C0220F331F0A94E2F7242B2083E09198
:103910008002F091810240819C010090870202C0E8
:10392000220F331F0A94E2F7242B2083E0918002B8
:10393000F091810240819C010090880202C0220F18
:10394000331F0A94E2F7242B2083E0918002F09148
:10395000810220810090890202C0880F991F0A9479
:10396000E2F780958223808340E050E0BA0185E948
:1039700092E00E94DF0B60E070E085E992E00E9437
:103980002C04E0919102F09192021582148213822C
:103990001282118610861782168284E190E0938746
:1039A00082879587848780EE9FEF9787868710921E
:1039B00080001092810010928500109284008FEF99
:1039C0009CE79093890080938800809181008860B3
:1039D000809381008091810081608093810080913B
:1039E0006F00826080936F0005EE35EC932E42E508
:1039F000742E11E088248A9455E0652E8091690325
:103A00008130E1F710926903C0919302D091940242
:103A100080939F0570926A0310929D0510929E05F7
:103A20008091B0018111FCCF1093B0011093B201CD
:103A30008092AF011092D4016092D3011093D5010E
:103A40008091D501846A8093D5018091B101813044
:103A500049F41092B1018091D5018093BB009092FE
:103A6000BC0002C00093BC008091B0018130E1F342
:103A70008091D401863018F49091D40101C096E071
:103A800023EBC22E21E0D22EADE8B1E0F60180E0BA
:103A9000891721F021912D938F5FFACF1092AE01FB
:103AA0008093AD01882309F4A9CF8BE6E82E83E04B
:103AB000F82E91E7A92E93E0B92E9091AD01809157
:103AC000AE019813A1C060E086ED91E00E94BE17A0
:103AD00020919E05213208F041C08091B0018111F2
:103AE000FCCF80916A0392E09093B0011093B201F1
:103AF0008092AF011092D4012093D301EDE7F5E05D
:103B000090E0291731F03191D6013D936D019F5F0F
:103B1000F8CF1092D5019091D501880F892B809311
:103B2000D5018091B101813049F41092B1018091A9
:103B3000D5018093BB009092BC0002C00093BC00F2
:103B40008091B0018230E1F38091AF018F3F31F07D
:103B50008091AF01803211F08091AF0110929D05EC
:103B600010929E0510929F0580916B03803819F486
:103B70001B821A8206C0843D38F081E090E09B836E
:103B80008A831F821E8208C08D3230F41B821A8203
:103B900081E090E09F838E8380916C03803819F4DC
:103BA0001982188206C0843D38F081E090E0998344
:103BB00088831D821C8208C08D3230F419821882DD
:103BC00081E090E09D838C8380917003833019F4B1
:103BD0001986188606C0823039F481E090E0998712
:103BE00088871B861A860ACF813029F419861886A1
:103BF00081E090E006C0811101CF81E090E09987DB
:103C000088879B878A87FACE86ED91E00E942B0DEC
:103C1000F70181937F01AE16BF0609F454CF4DCF53
:103C2000F8940C94581F0F931F93CF93DF93823017
:103C3000910510F482E090E0E091A605F091A705CF
:103C400020E030E0A0E0B0E0309719F140815181F0
:103C50000281138148175907C8F08417950769F442
:103C6000109731F012960C93129713961C9327C05D
:103C70000093A6051093A70522C02115310519F060
:103C80004217530718F49A01BD01EF01DF01F80153
:103C9000DBCF21153105F9F0281B390B2430310514
:103CA00080F48A819B816115710521F0FB0193836A
:103CB000828304C09093A7058093A605FE013296E7
:103CC00044C0FE01E20FF31F81939193225031090A
:103CD000398328833AC02091A4053091A505232B70
:103CE00041F420910601309107013093A5052093FE
:103CF000A40520910401309105012115310541F4FD
:103D00002DB73EB74091080150910901241B350B96
:103D1000E091A405F091A505E217F307A0F42E1B8E
:103D20003F0B2817390778F0AC014E5F5F4F24171F
:103D3000350748F04E0F5F1F5093A5054093A4052B
:103D40008193919302C0E0E0F0E0CF01DF91CF9149
:103D50001F910F910895CF93DF93009709F481C0CD
:103D6000FC01329713821282A091A605B091A7059B
:103D7000109781F420813181820F931F2091A40537
:103D80003091A5052817390751F5F093A505E09363
:103D9000A40567C0ED0120E030E0CE17DF0740F456
:103DA0004A815B819E0141155105F1F0EA01F5CF91
:103DB000D383C28340815181840F951FC817D907CF
:103DC00059F488819981840F951F0296918380838D
:103DD0008A819B81938382832115310529F4F09395
:103DE000A705E093A6053DC0E901FB83EA8349915D
:103DF0005991C40FD51FEC17FD0761F480819181A3
:103E0000840F951F0296E9019983888382819381AB
:103E10009B838A83E0E0F0E012968D919C9113974A
:103E2000009719F0FD01DC01F7CF8D919C9111975E
:103E30009D012E5F3F4F820F931F2091A40530916B
:103E4000A5052817390769F4309729F41092A705BA
:103E50001092A60502C013821282B093A505A0930A
:103E6000A405DF91CF9108950E943C1F332312F4E3
:103E70008A1B9B0B0C944D1FA29FB001B39FC001E6
:103E8000A39F700D811D1124911DB29F700D811D86
:103E90001124911D08950E943C1FB7FF0895821BB5
:103EA000930B0895EE0FFF1F0590F491E02D0994F8
:043EB000F894FFCFB4
:103EB400FFFFFFFF0000A805200000000000BE1760
:103EC400911755172B0D1C0D1B0D0000000000143D
:103ED400B313000000001913B313A213661386135F
:103EE4005B13000000007208B313FD0ACE0B4D0BE8
:103EF400D607510794072F053F0341084A03E105FC
:103F04005306C5062C04BF036003DF0B7F0B55501B
:103F140000524947485400444F574E004C454654BC
:103F240000424F4D425F504C4143454400424F4D87
:0A3F3400425F52454D4F56454400D0
:00000001FF
