:100000000C9435000C945D000C945D000C945D0024
:100010000C945D000C945D000C945D000C945D00EC
:100020000C945D000C945D000C945D000C945D00DC
:100030000C945D000C945D000C945D000C945D00CC
:100040000C945D000C945D000C945D000C945D00BC
:100050000C945D000C945D000C945D000C945D00AC
:100060000C9433010C945D005A0211241FBECFEF93
:10007000D8E0DEBFCDBF11E0A0E0B1E0E2E9F9E0F9
:1000800002C005900D92A631B107D9F721E0A6E193
:10009000B1E001C01D92A03EB207E1F710E0C5E358
:1000A000D0E004C02197FE010E94C104C433D107EF
:1000B000C9F70E9487020C949D030C94000085ED03
:1000C0008093BC008091BC0084FDFCCF1092A601FF
:1000D0000895613298F42091A601243089F4609348
:1000E0008201282FA2E6B1E0FC018E2F821B861729
:1000F00018F481918D93F9CF80E0089581E00895FF
:1001000082E00895CF92DF92EF92FF920F931F93B8
:10011000CF93DF936C01EB017B01E40EF51E00E051
:1001200010E0CE15DF0561F06991D601ED91FC91EB
:100130000190F081E02DC6010995080F191FF1CF3C
:10014000C801DF91CF911F910F91FF90EF90DF9049
:10015000CF9008950895E091610180916001E817C2
:1001600030F4F0E0E05CFE4F808190E008958FEF86
:100170009FEF08959091610180916001981750F46C
:10018000E92FF0E0E05CFE4F208130E09F5F90932C
:10019000610102C02FEF3FEFC90108958091600116
:1001A00090E020916101821B91090895CF92DF9226
:1001B000EF92FF920F931F93CF93DF937C01CB01BC
:1001C0008A0120913F01222389F0EB016B01C40ECB
:1001D000D51ECC15DD0569F06991D701ED91FC9133
:1001E0000190F081E02DC7010995F3CF642F0E94A3
:1001F0006900C801DF91CF911F910F91FF90EF909F
:10020000DF90CF900895CF93DF931F92CDB7DEB7E5
:10021000698320913F012223D1F020913E012032B9
:1002200040F021E030E0FC013383228380E090E065
:1002300015C080913D01E82FF0E0E35EFE4F99810B
:1002400090838F5F80933D0180933E0105C061E004
:10025000CE0101960E94690081E090E00F90DF914D
:10026000CF91089508951F920F920FB60F92112407
:100270002F933F934F935F936F937F938F939F93AE
:10028000AF93BF93EF93FF938091B900887F80363F
:1002900009F49CC068F5883209F45BC090F48031A1
:1002A00009F454C038F4882309F4EFC0883009F405
:1002B0004DC0EFC0883109F44CC0803209F45DC0F4
:1002C000E8C0803409F468C048F4803309F455C0AC
:1002D000883309F0DEC08093A501D1C0803509F4D0
:1002E0004FC0883509F45DC0883409F0D2C0CFC052
:1002F000883909F4C0C0A8F4883709F467C038F415
:10030000883609F463C0803709F460C0C2C08838F9
:1003100009F4B1C0803909F45FC0803809F0B9C070
:100320005BC0803B09F481C038F4803A09F466C0B0
:10033000883A09F47AC0ADC0803C09F4A0C0883C7A
:1003400009F49DC0883B09F483C0A3C08091CB0110
:1003500010C09091CA018091C901981770F5E09181
:10036000CA0181E08E0F8093CA01F0E0E755FE4F8D
:1003700080818093BB0085EC7FC08093A50187C0FE
:10038000E091CA0181E08E0F8093CA018091BB0089
:10039000F0E0E755FE4F80839091CA018091C9013A
:1003A00067C0E091CA0181E08E0F8093CA018091FD
:1003B000BB00F0E0E755FE4F80838091A8018111DA
:1003C00066C081E08093A70184EA5AC083E08093ED
:1003D000A6011092A401CFCF8091A401803208F031
:1003E0004AC0E091A40181E08E0F8093A401809126
:1003F000BB00F0E0EC57FE4F8083BDCF8091A4019D
:10040000803230F4E091A401F0E0EC57FE4F10820E
:100410000E945F006091A40170E084E891E0E0E058
:10042000F0E009951092A4012AC084E08093A6010F
:100430001092830110928201E0E0F0E00995809132
:100440008201811105C081E08093820110926201D6
:10045000E091830181E08E0F80938301F0E0EE59FB
:10046000FE4F80818093BB00909183018091820137
:10047000981708F480CF85E88093BC000AC085EC0B
:100480008093BC001092A60104C01092A5010E94A6
:100490005F00FF91EF91BF91AF919F918F917F91FD
:1004A0006F915F914F913F912F910F900FBE0F90E1
:1004B0001F9018951092CF011092CE0188EE93E014
:1004C000A0E0B0E08093D0019093D101A093D2013D
:1004D000B093D3018AE091E09093CD018093CC0159
:1004E0008091D8019091D901892B41F48CE090E062
:1004F0000E94A0039093D9018093D8018091D801E4
:100500009091D9019093DB018093DA01089578945A
:10051000EE24E39432E5432E77247A9445E0342E9A
:1005200055EE652E65EC562E7DE1A72E71E0B72EB7
:10053000E2E02E2E01E010E0C091DA01D091DB0163
:10054000E0923F014092160110923D0110923E014F
:100550008091A6018111FCCFE092A601E092A80152
:100560007092A5011092CA013092C901E092CB01AC
:100570008091CB01846A8093CB018091A701813067
:1005800049F41092A7018091CB018093BB00509257
:10059000BC0002C06092BC008091A6018130E1F3F2
:1005A0008091CA01863018F4F090CA0102C026E09A
:1005B000F22E99EAC92E91E0D92EA0E4B1E0F6011D
:1005C00080E08F1521F091919D938F5FFACF10926B
:1005D0006101F0926001FF2009F499C087E1882E43
:1005E00081E0982E80916101F8129BC060E08CEC54
:1005F00091E00E94030120913E01213208F040C0A9
:100600008091A6018111FCCF809116012092A60154
:10061000E092A8017092A5011092CA012093C9012D
:10062000EDE1F1E090E0291731F03191D6013D93F1
:100630006D019F5FF8CF1092CB019091CB01880F95
:10064000892B8093CB018091A701813049F41092CE
:10065000A7018091CB018093BB005092BC0002C0E7
:100660006092BC008091A6018230E1F38091A501E7
:100670008F3F31F08091A501803211F08091A5016A
:1006800010923D0110923E0110923F01809117019E
:10069000803819F41B821A8204C0843D28F01B8321
:1006A0000A831F821E8206C08D3220F41B821A82AA
:1006B0001F830E8380911801803819F419821882E3
:1006C00004C0843D28F0198308831D821C8206C063
:1006D0008D3220F4198218821D830C8380911C01B5
:1006E000833019F41986188604C0823029F41987DA
:1006F00008871B861A860BC0813019F41986188664
:1007000004C0811104C0198708871B870A87BFEFBF
:10071000E1EEF4E0B150E040F040E1F700C000004D
:100720000BCF8CEC91E00E94BA00D4018D934D0167
:10073000AA16BB0609F45ACF55CFF8940C94C704F7
:100740000F931F93CF93DF938230910510F482E0D3
:1007500090E0E091DE01F091DF0120E030E0A0E0E8
:10076000B0E0309719F1408151810281138148171F
:100770005907C8F08417950769F4109731F012965D
:100780000C93129713961C9327C00093DE011093CD
:10079000DF0122C02115310519F04217530718F463
:1007A0009A01BD01EF01DF01F801DBCF2115310511
:1007B000F9F0281B390B2430310580F48A819B81A4
:1007C0006115710521F0FB019383828304C090932E
:1007D000DF018093DE01FE01329644C0FE01E20F8C
:1007E000F31F8193919322503109398328833AC0B2
:1007F0002091DC013091DD01232B41F42091020195
:10080000309103013093DD012093DC012091000140
:10081000309101012115310541F42DB73EB74091CA
:10082000040150910501241B350BE091DC01F0918E
:10083000DD01E217F307A0F42E1B3F0B2817390741
:1008400078F0AC014E5F5F4F2417350748F04E0F2C
:100850005F1F5093DD014093DC018193919302C0AF
:10086000E0E0F0E0CF01DF91CF911F910F9108956B
:10087000CF93DF93009709F481C0FC013297138274
:100880001282A091DE01B091DF01109781F42081E6
:100890003181820F931F2091DC013091DD012817F7
:1008A000390751F5F093DD01E093DC0167C0ED01FC
:1008B00020E030E0CE17DF0740F44A815B819E01E3
:1008C00041155105F1F0EA01F5CFD383C283408190
:1008D0005181840F951FC817D90759F488819981D0
:1008E000840F951F0296918380838A819B819383D5
:1008F00082832115310529F4F093DF01E093DE01B5
:100900003DC0E901FB83EA8349915991C40FD51F8A
:10091000EC17FD0761F480819181840F951F029689
:10092000E90199838883828193819B838A83E0E0B4
:10093000F0E012968D919C911397009719F0FD01AC
:10094000DC01F7CF8D919C9111979D012E5F3F4F58
:10095000820F931F2091DC013091DD0128173907A8
:1009600069F4309729F41092DF011092DE0102C081
:1009700013821282B093DD01A093DC01DF91CF914D
:100980000895EE0FFF1F0590F491E02D0994F8945F
:02099000FFCF97
:100992000000E0012000000000000301D600CE00AC
:0609A200BA00AB00AA0040
:00000001FF
