:100000000C9415030C943D030C943D030C943D0398
:100010000C943D030C943D030C943D030C943D0360
:100020000C943D030C943D030C943D030C943D0350
:100030000C943D030C943D030C943D030C943D0340
:100040000C947D190C943D030C940C130C94D11258
:100050000C943D030C943D030C943D030C943D0320
:100060000C94AA110C943D03EF03038002CF03000C
:10007000C130ED0464031281E803850078CB0539B3
:100080002C003402F70120EA020000C00123C10164
:1000900010C5023E28C701863601483701003A01E3
:1000A00055B1020018B603088227F20100260101AB
:1000B000E00F0F312B0C0E084EF1370710030E091D
:1000C00000E10F000E1403110731C148080F0C3175
:1000D000360F118029800000000000003E5B4F5B5E
:1000E0003E3E6B4F6B3E1C3E7C3E1C183C7E3C18DB
:1000F0001C577D571C1C5E7F5E1C00183C1800FFBF
:10010000E7C3E7FF0018241800FFE7DBE7FF3048EC
:100110003A060E2629792926407F050507407F05E6
:10012000253F5A3CE73C5A7F3E1C1C08081C1C3EDD
:100130007F14227F22145F5F005F5F06097F017FCB
:10014000006689956A606060606094A2FFA294086E
:10015000047E040810207E201008082A1C08081CB1
:100160002A08081E101010100C1E0C1E0C30383EF1
:100170003830060E3E0E06000000000000005F0052
:10018000000007000700147F147F14242A7F2A121E
:100190002313086462364956205000080703000004
:1001A0001C2241000041221C002A1C7F1C2A080836
:1001B0003E08080080703000080808080800006049
:1001C000600020100804023E5149453E00427F4035
:1001D0000072494949462141494D331814127F1094
:1001E00027454545393C4A494931412111090736DE
:1001F00049494936464949291E000014000000407B
:100200003400000008142241141414141400412274
:10021000140802015909063E415D594E7C12111223
:100220007C7F494949363E414141227F4141413E1F
:100230007F494949417F090909013E414151737F85
:100240000808087F00417F41002040413F017F08AE
:100250001422417F404040407F021C027F7F0408FF
:10026000107F3E4141413E7F090909063E4151212F
:100270005E7F09192946264949493203017F010356
:100280003F4040403F1F2040201F3F4038403F63D9
:100290001408146303047804036159494D43007F33
:1002A0004141410204081020004141417F04020104
:1002B00002044040404040000307080020545478A6
:1002C000407F284444383844444428384444287FF4
:1002D000385454541800087E090218A4A49C787F4E
:1002E0000804047800447D40002040403D007F1019
:1002F00028440000417F40007C047804787C080496
:1003000004783844444438FC182424181824241849
:10031000FC7C08040408485454542404043F442436
:100320003C4040207C1C2040201C3C4030403C4451
:10033000281028444C9090907C4464544C4400080D
:10034000364100000077000000413608000201023B
:1003500004023C2623263C1EA1A161123A40402003
:100360007A3854545559215555794122545478427C
:10037000215554784020545579400C1E5272123940
:1003800055555559395454545939555454580000F9
:10039000457C410002457D420001457C407D1211B3
:1003A000127DF0282528F07C545545002054547CBB
:1003B000547C0A097F4932494949323A4444443A13
:1003C000324A4848303A4141217A3A424020780046
:1003D0009DA0A07D3D4242423D3D4040403D3C24E9
:1003E000FF2424487E4943662B2FFC2F2BFF09292D
:1003F000F620C0887E090320545479410000447DD2
:10040000413048484A32384040227A007A0A0A721B
:100410007D0D19317D2629292F28262929292630C5
:10042000484D4020380808080808080808382F10E8
:10043000C8ACBA2F102834FA00007B000008142A38
:10044000142222142A14085500550055AA55AA55FD
:10045000AAFF55FF55FF000000FF00101010FF001D
:10046000141414FF001010FF00FF1010F010F0140F
:100470001414FC001414F700FF0000FF00FF141414
:10048000F404FC141417101F10101F101F14141460
:100490001F00101010F0000000001F101010101F9F
:1004A00010101010F010000000FF101010101010AD
:1004B000101010FF10000000FF140000FF00FF00EC
:1004C000001F10170000FC04F41414171017141464
:1004D000F404F40000FF00F714141414141414F7B7
:1004E00000F7141414171410101F101F141414F410
:1004F000141010F010F000001F101F0000001F1457
:10050000000000FC140000F010F01010FF10FF14A9
:100510001414FF141010101F00000000F010FFFF53
:10052000FFFFFFF0F0F0F0F0FFFFFF000000000021
:10053000FFFF0F0F0F0F0F3844443844FC4A4A4A5C
:10054000347E02020606027E027E02635549416342
:100550003844443C04407E201E2006027E0202995C
:10056000A5E7A5991C2A492A1C4C7201724C304AF5
:100570004D4D303048784830BC625A463D3E49497E
:1005800049007E0101017E2A2A2A2A2A44445F4426
:100590004440514A444040444A51400000FF010356
:1005A000E080FF000008086B6B0836123624360620
:1005B0000F090F060000181800000010100030404E
:1005C000FF0101001F01011E00191D1712003C3C14
:1005D0003C3C000000000000000000240027002A2E
:1005E0000000000000250028002B0004040404047F
:1005F00004040402020202020203030303030301D0
:1006000002040810204080010204081020010204A6
:10061000081020000000070002010000030406008B
:100620000000000000000000F31C11241FBECFEFEB
:10063000D8E0DEBFCDBF11E0A0E0B1E0E2EFFAE329
:1006400002C005900D92A036B107D9F725E0A0E6CB
:10065000B1E001C01D92A432B207E1F713E0C5E199
:10066000D3E004C02197FE010E94711DC431D1075F
:10067000C9F70E94C7190C94501D0C940000FC018E
:1006800087A987FD06C0A38DB48D9C9181A9892B74
:100690008C9308950895FC016370668B8481958125
:1006A00026813781613039F0633029F09187808766
:1006B000338722870895318720879387828708951B
:1006C0006F927F928F929F92AF92BF92CF92DF9262
:1006D000EF92FF920F931F93CF93DF93EC014B01A7
:1006E0005A0169013801E881F9810680F781E02D1E
:1006F0000995E881F9810684F785E02D8701960147
:10070000A501B401CE010995A501460D571D415023
:100710005109E881F9810684F785E02D9601B4013D
:10072000CE010995E881F9810484F585E02D9301D6
:10073000A501B401CE010995C80CD91CB6016150C0
:100740007109E881F9810484F585E02D9301A50103
:10075000CE010995E881F9810288F389E02DCE0167
:10076000DF91CF911F910F91FF90EF90DF90CF908D
:10077000BF90AF909F908F907F906F9009948F92D1
:100780009F92AF92BF92CF92DF92EF92FF920F9320
:100790001F93CF93DF934C016B015A01E901DC01F8
:1007A000ED91FC916217730781F40417150724F487
:1007B0008B2D5801042F182F0A191B0998012F5F40
:1007C0003F4F008CF18DE02D12C04017510709F505
:1007D0002617370724F48D2D6901C62FD82F9E01C7
:1007E0002C193D092F5F3F4F028CF38DE02D8701BF
:1007F000A501B601C4010995DF91CF911F910F9119
:10080000FF90EF90DF90CF90BF90AF909F908F9030
:1008100008950680F781E02D0995D401ED91FC91B2
:100820000088F189E02D9E01A501B601C40109955A
:10083000D401ED91FC910288F389E02DC401DF9190
:10084000CF911F910F91FF90EF90DF90CF90BF90CD
:10085000AF909F908F900994EF92FF920F931F9308
:10086000DC011A960D911C911B9718962D913C91C5
:100870001997ED91FC91048CF58DE02D7B0140E002
:1008800050E060E070E009951F910F91FF90EF90AC
:1008900008954F925F926F927F928F929F92AF9244
:1008A000BF92CF92DF92EF92FF920F931F93CF935D
:1008B000DF936C012B015A0139014801DC01ED91F4
:1008C000FC910680F781E02D0995E201640C751C0E
:1008D000D601ED91FC91C615D7055CF40484F5852D
:1008E000E02D87019401A501BE01C601099521965D
:1008F000EFCF0288F389E02DC601DF91CF911F91E0
:100900000F91FF90EF90DF90CF90BF90AF909F90AE
:100910008F907F906F905F904F9009948F929F92ED
:10092000AF92BF92CF92DF92EF92FF920F931F93FD
:10093000CF93DF93EC015B014A016901E881F98102
:100940000680F781E02D099595012C0D3D1D215064
:100950003109E881F9810088F189E02D780184016D
:10096000A401B501CE010995E881F9810288F389D6
:10097000E02DCE01DF91CF911F910F91FF90EF906D
:10098000DF90CF90BF90AF909F908F9009948F92FF
:100990009F92AF92BF92CF92DF92EF92FF920F930E
:1009A0001F93CF93DF93EC015B014A01690178014A
:1009B000E881F9810680F781E02D0995C80CD91CE2
:1009C000860101501109E881F9810088F189E02D43
:1009D0009501A401B501CE010995E881F98102884C
:1009E000F389E02DCE01DF91CF911F910F91FF9000
:1009F000EF90DF90CF90BF90AF909F908F90099431
:100A0000EF92FF920F931F93DC01ED91FC91048C08
:100A1000F58DE02D09951F910F91FF90EF900895AE
:100A20000F931F93DC01ED91FC91028CF38DE02D6F
:100A300009951F910F9108950F931F93DC01ED917C
:100A4000FC91008CF18DE02D09951F910F91089577
:100A5000DC01ED91FC910480F581E02D09942F9249
:100A60003F924F925F926F927F928F929F92AF923E
:100A7000BF92CF92DF92EF92FF920F931F93CF938B
:100A8000DF9300D000D000D0CDB7DEB72C017E833D
:100A90006D836A015901C801FC82EB824801841A06
:100AA000950A97FE03C091948194910835012D8198
:100AB0003E81621A730A77FE03C0719461947108D3
:100AC000681479045CF43A2D2B2D5C01832F922F4E
:100AD0003D812E81DE82CD82C32ED22EAD81BE819C
:100AE000AA16BB065CF43C2D2D2D6C01832F922F92
:100AF0003D812E81BE82AD82A32EB22E85012D8135
:100B00003E81021B130B1C012C183D0837FE03C04D
:100B1000319421943108780117FF03C03FEFE31AA5
:100B2000F30AF594E794C816D9062CF08FEF9FEFDF
:100B30009A83898304C0A1E0B0E0BA83A9832D81A0
:100B40003E81A216B30624F1D201ED91FC910084FE
:100B5000F185E02D2B813C816814790424F44D81CA
:100B60005E81B60103C0A6016D817E81C201099537
:100B7000E218F308F7FE06C029813A81C20ED31E9F
:100B8000E00EF11E8D819E8101969E838D83D7CFCD
:100B900026960FB6F894DEBF0FBECDBFDF91CF9182
:100BA0001F910F91FF90EF90DF90CF90BF90AF908B
:100BB0009F908F907F906F905F904F903F902F907D
:100BC00008958F929F92AF92BF92CF92DF92EF9251
:100BD000FF920F931F93CF93DF935C014B016A0148
:100BE000E90177FD53C0DC0118968D919C9119970E
:100BF000681779070CF04AC0209709F447C037FFFF
:100C000007C0C9010196C80ED91ED195C195D10959
:100C1000F50182859385C816D906C4F5A6014C0F47
:100C20005D1F9A012150310937FD30C0D7FE03C046
:100C3000EA01C12CD12C281739071CF0EC01CC1982
:100C4000DD09D501ED91FC910680F781E02DC5010C
:100C5000099578018E0121E030E0A601B401C501BB
:100C60000E94390FD501ED91FC910288F389E02DA6
:100C7000C501DF91CF911F910F91FF90EF90DF9011
:100C8000CF90BF90AF909F908F900994DF91CF91BC
:100C90001F910F91FF90EF90DF90CF90BF90AF909A
:100CA0009F908F9008958F929F92AF92BF92CF9214
:100CB000DF92EF92FF920F931F93CF93DF935C012C
:100CC0006B014A01E90157FD53C0DC011A968D9171
:100CD0009C911B97481759070CF04AC0209709F4BC
:100CE00047C037FF07C0C9010196C80ED91ED1956C
:100CF000C195D109F50180859185C816D906C4F53D
:100D0000A6014C0F5D1F9A012150310937FD30C0FB
:100D1000D7FE03C0EA01C12CD12C281739071CF0DB
:100D2000EC01CC19DD09D501ED91FC910680F7812C
:100D3000E02DC5010995780101E010E09E01A401B4
:100D4000B601C5010E94390FD501ED91FC910288D1
:100D5000F389E02DC501DF91CF911F910F91FF9095
:100D6000EF90DF90CF90BF90AF909F908F900994BD
:100D7000DF91CF911F910F91FF90EF90DF90CF9077
:100D8000BF90AF909F908F900895EF92FF920F9336
:100D90001F93CF93DF9377FD34C0DC011896ED915C
:100DA000FC9119976E177F0764F52115310549F1FC
:100DB00037FF07C0F90131964E0F5F1F319521951E
:100DC0003109DC011A96ED91FC911B974E175F07D4
:100DD000C4F4EA01C20FD31FDE011197B7FD11C0A1
:100DE00057FF03C09E0140E050E0AE17BF071CF064
:100DF0009F01241B350B7801890121E030E00E941E
:100E0000390FDF91CF911F910F91FF90EF900895CF
:100E1000EF92FF920F931F93CF93DF9357FD33C051
:100E2000DC011A96ED91FC911B974E175F075CF55C
:100E30002115310541F137FF07C0F90131966E0FD9
:100E40007F1F319521953109DC011896ED91FC91B8
:100E500019976E177F07BCF4EB01C20FD31FDE0199
:100E60001197B7FD10C077FF03C09E0160E070E0EE
:100E7000AE17BF071CF09F01261B370B780101E05E
:100E800010E00E94390FDF91CF911F910F91FF90D9
:100E9000EF9008958F929F92AF92BF92CF92DF9280
:100EA000EF92FF920F931F93CF93DF93470121158A
:100EB000310509F44DC00115110509F449C037FF8A
:100EC00007C0F90131966E0F7F1F319521953109C9
:100ED000DC011896AD90BC9019976A157B05C4F596
:100EE00017FF07C0F80131964E0F5F1F119501954E
:100EF0001109DC011A96ED91FC911B974E175F07C3
:100F00003CF56B01C20ED31EE6012197D7FD20C030
:100F10007A01E00EF11ED7011197B7FD19C077FFD6
:100F200003C0960160E070E057FF03C0870140E016
:100F300050E0CA15DB051CF09501261B370BAE17D8
:100F4000BF071CF08F01041B150B74010E94390FA1
:100F5000DF91CF911F910F91FF90EF90DF90CF9095
:100F6000BF90AF909F908F900895EF92FF920F9354
:100F70001F932115310529F00115110511F00E946B
:100F8000E70F1F910F91FF90EF900895CF93DF939C
:100F90001F92CDB7DEB7FC016370668B623041F003
:100FA000633079F0613011F088E403C088E20AC050
:100FB00088E8898380EF90E09187808780E491E0E2
:100FC00008C088EE898380E491E09187808780EF74
:100FD00090E09387828721E0AE014F5F5F4F66E329
:100FE000CF010E94DC0E0F90DF91CF9108958F9278
:100FF0009F92AF92CF92EF92FF920F931F93CF9356
:10100000DF93EC01262F898D9A8D009709F042C05D
:101010006A3059F41D861C862D898E859F8538E09F
:10102000239F800D911D112443C06D3009F4AAC087
:101030008F898823C9F03C898C859D8546E0349F43
:10104000800D911D1124488559854817590764F46E
:101050001D861C863D898E859F8548E0349F800DC6
:10106000911D11249F878E87EA88FB88088919893A
:101070004E855F856C857D85AD88CC88CE010E94CC
:101080007B0C2C898C859D8536E0239F800D911DDE
:1010900011243EC06A3079F41D861C862D89FC011E
:1010A0003696E4918E859F852E9F800D911D11248B
:1010B0009F878E8767C06D3009F464C0FC01349649
:1010C0003491631708F45EC03196E491E61708F492
:1010D00059C0462F431B342FFC01329685909490C3
:1010E00047E0349F800C911C1124F4013296349116
:1010F0003196E491332311F0E1110DC0F4013496DF
:10110000E4912C898C859D85E29F800D911D112491
:101110009D878C8737C0F401359644915F895523AC
:1011200019F15C89E32FF0E0E40FF11D47FDFA951A
:101130005E9FB0015F9F700D11244C855D85460F49
:10114000571F688579856417750774F41D861C869A
:101150003D89FC013696E4918E859F853E9F800DEA
:10116000911D11249F878E87EA88FB880889198939
:101170004E855F856C857D85AD88CC88CE010E94CB
:101180007B0CBCCF81E090E0DF91CF911F910F915C
:10119000FF90EF90CF90AF909F908F900895FC01BB
:1011A000A5A1B6A19C9182A589238C93A5A1B6A1E6
:1011B0009C9181A5892B8C9308950F931F93CF93B6
:1011C000DF93EC018B018DA9811109C01EBD0DB407
:1011D00007FEFDCF0EBD0DB407FEFDCF2FC0813041
:1011E000E9F480E1E9A1FAA1208117FF03C09DA1E4
:1011F000922B02C09EA192239083EBA1FCA120819F
:101200009FA1922B9083EBA1FCA1208198A5922312
:101210009083000F111F815029F710C0EF8DF8A1A6
:101220001083CE010E94CF08EF8DF8A10083CE017C
:10123000DF91CF911F910F910C94CF08DF91CF9147
:101240001F910F910895AF92BF92CF92DF92EF92CC
:10125000FF920F931F93CF93DF93EC0177FD38C07C
:1012600088859985681779079CF557FD31C08A856F
:101270009B854817590764F569017A015B01E8818C
:10128000F9810680F781E02DCE010995E881F98189
:1012900006A0F7A1E02D01E010E021E030E0A70179
:1012A000B501CE010995B601CE010E94DD08E881A5
:1012B000F9810288F389E02DCE01DF91CF911F9152
:1012C0000F91FF90EF90DF90CF90BF90AF90099477
:1012D000DF91CF911F910F91FF90EF90DF90CF9012
:1012E000BF90AF900895EF92FF920F931F93CF930B
:1012F000DF93EC0177FD22C088859985681779070F
:10130000ECF457FD1BC08A859B8548175907B4F438
:101310007901E881F98106A0F7A1E02D01E010E054
:1013200021E030E0CE010995B701CE01DF91CF91E8
:101330001F910F91FF90EF900C94DD08DF91CF91FA
:101340001F910F91FF90EF900895AF92BF92CF92AF
:10135000DF92EF92FF920F931F93CF93DF93EC01F5
:101360005B016A01215031097901E60EF71E015037
:101370001109040F151F6AE20E94240FB501CE0166
:101380000E94DD08B701CE010E94DD086BE2CE01AC
:101390000E94240FB601CE010E94DD08B801CE01E3
:1013A0000E94DD086CE2CE01DF91CF911F910F9179
:1013B000FF90EF90DF90CF90BF90AF900C94240FF0
:1013C000FC0185A981110FC09CB59C7F9CBD9DB57A
:1013D00091609DBD9CB59F7D9CBD2CB5237F95A143
:1013E000822F892B8CBD0895CF93DF93EC010E944F
:1013F000E0098FA987FD06C0EB8DFC8D90818AA93D
:1014000089238083DF91CF910895BF92CF92DF929D
:10141000EF92FF920F931F93CF93DF93EC016A013A
:101420007B01452B462B472B31F4C12C22E1D22ED8
:101430002AE7E22EF12C8FA987FD07C061E00E9408
:10144000F61861E08FA90E94A31361E088AD0E94A5
:10145000F61861E088AD0E94A3138DA981111DC00B
:10146000C9A2DAA2EBA2FCA21DA21EA21FA218A66C
:1014700061E08AE00E94A31361E08AE00E94F6180E
:101480008CB580618CBD8CB580648CBD61E08DE0D5
:101490000E94F61861E08BE016C08130B9F461E07B
:1014A0008AA50E94F61860E08AA50E94A31361E055
:1014B0008CA50E94F61860E08CA50E94A3138BA552
:1014C00087FD36C060E00E94F61832C00BEE15E0D2
:1014D000F12CF8018491E82FF0E0EE0FFF1FEF519F
:1014E000FA4F859194912F8D38A12817390741F42F
:1014F00061E08F2D0E94F61860E08F2D0E94A313EB
:10150000F3940F5F1F4FF4E1FF12E3CF61E08EA56C
:101510000E94F61861E08EA50E94A3138FA587FD97
:1015200007C061E00E94F61861E08FA50E94A31336
:101530008EA987FD21C061E00E94F61861E08EA9A6
:101540000E94A31364E670E080E090E00E943219EC
:1015500060E08EA90E94A31364E670E080E090E052
:101560000E94321961E08EA90E94A31368EC70E01A
:1015700080E090E00E9432198EA987FF10C020E021
:1015800040E050E061E0CE010E94DC0E2FEF82E5EA
:1015900097E0215080409040E1F700C0000088E6CD
:1015A000E82E80E0F82EC7010196F701149111236F
:1015B00009F44BC0FC01B4900B2D0F77CE010E94B3
:1015C000E0098FA987FD06C0EB8DFC8D90818AA96B
:1015D00089238083ED8DFE8D90818CA98923808362
:1015E000612FCE010E94AF0EED8DFE8D90818BA9F3
:1015F000892B8083C12CD12C10E0C016D10664F455
:10160000F6013296EE0DFF1D6491CE010E94AF0EE1
:10161000FFEFCF1ADF0AF1CF8FA987FD06C0EB8D50
:10162000FC8D908189A9892B80830E5F1F4FE00E6E
:10163000F11EB7FEB8CF2FEF82E597E02150804032
:101640009040E1F700C00000AECF80EF90E09987B6
:10165000888780E491E09B878A87DF91CF911F91F3
:101660000F91FF90EF90DF90CF90BF90089585EDA0
:101670008093BC008091BC0084FDFCCF1092AE0131
:101680000895613298F42091AE01243089F460937A
:101690000002282FA0EEB1E0FC018E2F821B8617DE
:1016A00018F481918D93F9CF80E0089581E0089539
:1016B00082E008950F931F93CF93DF93FC01A685DB
:1016C000B7858D01005C1F4FE801888199810196E3
:1016D0008F739927AD014E5B5F4FEA0128813981F5
:1016E00028173907D1F3E80128813981A20FB31FE8
:1016F0006C93A685B785A05CBF4F11969C938E9383
:10170000A689B7892C9181E090E0078C02C0880FF0
:10171000991F0A94E2F7822B8C9381E081A30488BD
:10172000F589E02D80818064808381E090E0DF9105
:10173000CF911F910F910895FC0181A1882329F079
:10174000A489B5898C9186FFFBCF11A20895FC0175
:10175000A485B585FD01E05CFF4F20813181329683
:10176000808191812817390779F080819181A80FB4
:10177000B91F8C91208131812F5F3F4F2F73332709
:101780003183208390E008958FEF9FEF0895DC016F
:101790001C96ED91FC911D97DF01A05CBF4F2D9130
:1017A0003C91119712968D919C91119728173907AA
:1017B00039F08D919C91E80FF91F808190E0089598
:1017C0008FEF9FEF0895FC0124853585F901E05CDA
:1017D000FF4F80819181329620813181821B930B52
:1017E0008F73992708950895E091AC018091AB0122
:1017F000E81730F4F0E0E557FE4F808190E008955F
:101800008FEF9FEF08959091AC018091AB019817F5
:1018100050F4E92FF0E0E557FE4F208130E09F5F64
:101820009093AC0102C02FEF3FEFC9010895809162
:10183000AB0190E02091AC01821B91090895CF92F9
:10184000DF92EF92FF920F931F93CF93DF937C0170
:10185000CB018A0120918A01222389F0EB016B01DF
:10186000C40ED51ECC15DD0569F06991D701ED9147
:10187000FC910190F081E02DC7010995F3CF642F11
:101880000E94410BC801DF91CF911F910F91FF90F2
:10189000EF90DF90CF900895CF93DF931F92CDB755
:1018A000DEB7698320918A012223D1F0209189013A
:1018B000203240F021E030E0FC013383228380E0DD
:1018C00090E015C080918801E82FF0E0E859FE4FC4
:1018D000998190838F5F809388018093890105C0EF
:1018E00061E0CE0101960E94410B81E090E00F90F3
:1018F000DF91CF9108952F923F924F925F926F9216
:101900007F928F929F92AF92BF92CF92DF92EF928F
:10191000FF920F931F93CF93DF93CDB7DEB76B97F3
:101920000FB6F894DEBF0FBECDBF9B8F8A8F1B0111
:101930004A01D22E198708873701A982DC015996FE
:101940002D913C915A972115310509F0FFC0189649
:101950008D919C911997681779070CF0E7C11A9639
:101960008D919C911B97481759070CF0DFC1EC2D06
:10197000F0E0FB83EA839B0146E0C49E200D311D0D
:1019800011243D872C87121613060CF0CFC16A2D47
:1019900070E07B876A8783E0660F771F8A95E1F79F
:1019A0007F876E87CB01880D991D181619060CF0DC
:1019B000BDC158968C91811104C08FEA8D1508F431
:1019C000D394AA8DBB8DED91FC9111970680F78180
:1019D000E02DCD010995B5E0DB9EC0011124EC2D71
:1019E000F0E0F98BE88B91012B5F3F4F3B8B2A8B0B
:1019F0003D822C822101AC01421953095D8B4C8B35
:101A00007981672F70E07F8B6E8BC4010896998F68
:101A1000888FEC89FD89E40DF51DE952FF4FD490C4
:101A200054019F828E82D0FE16C0AA8DBB8DED918F
:101A3000FC91B1E0CB1209C02981213031F400843E
:101A4000F185E02D2885398519C00284F385E02DC4
:101A5000E884F9841DC0488559854615570519F154
:101A6000AA8DBB8DED91FC91B1E0CB120DC0298107
:101A7000213051F40084F185E02D9301A501B201DC
:101A80008A8D9B8D09950FC00284F385E02D73012B
:101A90000A851B852A813B814E815F816C817D8116
:101AA0008A8D9B8D0995D6943FEFA31AB30A4E8178
:101AB0005F816E897F89460F571F5F834E83888DB4
:101AC000998DA816B90609F0AECF9FEF491A590AA9
:101AD000AC81BD81E889F989AE0FBF1FBD83AC839E
:101AE0002A893B894216530609F093CF48855985C8
:101AF0004615570509F4F8C0AA8DBB8DED91FC91F0
:101B0000B1E0CB1211C02981213071F4B1016B5FBA
:101B10007F4F0484F585E02D830128E030E0A401A7
:101B20008A8D9B8D0995E0C06C857D854A815B819E
:101B3000641B750B0284F385E02D73010E851F85F0
:101B40009A01A4018A8D9B8D0995CEC0F901349626
:101B5000E491DE1AF901329685919491B7E0DB9E0B
:101B6000800D911D1124F901259134913B8B2A8B15
:101B7000FC01259134915901FC0132965490319623
:101B800034913C87329674903196149141E04C1513
:101B900018F05981523068F0672D072C000C770B34
:101BA0007D836C83812F012E000C990B9B838A838C
:101BB00004C01B821A821D821C82AA8DBB8DED91EE
:101BC000FC9111970680F781E02DCD010995412CFC
:101BD000D12C612CF981EF2FF0E0FF83EE832C2DC7
:101BE00030E03B872A87A401410F511D17FD5A950C
:101BF0005F8B4E8BB101670D711D77FC7A95798FE4
:101C0000688F7C85671608F06FC0262D30E04A810A
:101C10005B81420F531FAE81BF81A49FC001A59F6E
:101C2000900DB49F900D1124F401E80FF91FF98B6A
:101C3000E88B842D712C4E895F89420F531F5D8B79
:101C40004C8B751408F04DC051E0580F5E878770BB
:101C500041F4C5010196EA89FB89EA0DFB1DD49088
:101C60005C01D7FE3AC061E0C61216C079817130BE
:101C700099F4AA8DBB8DED91FC9111970084F185AB
:101C8000E02D288539854C895D89688D798D670DB2
:101C9000711DCD01099521C08C819D81870D911DFC
:101CA000EA85FB858E9FB0018F9F700D9E9F700D02
:101CB0001124620D731DAA8DBB8DED91FC911197BE
:101CC0000284F385E02DE884F9840E811F812A8542
:101CD0003B8548895989CD010995DD0C73948E8522
:101CE000B0CF450C63948DCFAA8DBB8DED91FC9147
:101CF00011970288F389E02DCD016B960FB6F89409
:101D0000DEBF0FBECDBFDF91CF911F910F91FF902E
:101D1000EF90DF90CF90BF90AF909F908F907F908B
:101D20006F905F904F903F902F9009946B960FB6F5
:101D3000F894DEBF0FBECDBFDF91CF911F910F9101
:101D4000FF90EF90DF90CF90BF90AF909F908F90DB
:101D50007F906F905F904F903F902F900895FC017F
:101D600085A9811105C06EBD0DB407FEFDCF089594
:101D70008130E1F488E0A1A1B2A12C9167FF03C0FA
:101D800095A1922B02C096A192239C93A3A1B4A1EA
:101D90002C9197A1922B9C93660FA3A1B4A12C9197
:101DA00090A592239C93815031F70895A78DB0A1FF
:101DB0006C93CF010C94CF08CF92DF92EF92FF92F9
:101DC0000F931F93CF93DF93EC01162F6A01E22E3E
:101DD0000E94E0098FA987FD06C0EB8DFC8D9081E4
:101DE0008AA989238083ED8DFE8D90818CA989231A
:101DF0008083612FCE010E94AF0EED8DFE8D90810C
:101E00008BA9892B80838601F12CC8018C199D092F
:101E10008E159F053CF4F80161918F01CE010E945F
:101E2000AF0EF3CF8FA987FD06C0EB8DFC8D90819F
:101E300089A9892B8083DF91CF911F910F91FF900A
:101E4000EF90DF90CF900895CF93DF93EC01ED8D6D
:101E5000FE8D90818CA989238083CE010E94AF0ED4
:101E6000ED8DFE8D90818BA9892B8083DF91CF91A1
:101E700008958F929F92AF92BF92CF92DF92EF928E
:101E8000FF920F931F93CF93DF93EC014901BE2C78
:101E9000AF2CE881F98106A0F7A1E02D0995940106
:101EA000D8010E94531D611571058105910509F442
:101EB00081C02DA921110FC06150710981099109BB
:101EC00008F478C0AEBC0DB407FEFDCFBEBC0DB4A7
:101ED00007FEFDCFF1CF213009F03FC061507109FD
:101EE0008109910908F466C03A2D28E0E9A1FAA118
:101EF000508137FF03C04DA1452B02C04EA14523A1
:101F00004083EBA1FCA150814FA1452B4083EBA165
:101F1000FCA1508148A545234083330F215031F760
:101F20003B2D28E0E9A1FAA1508137FF03C04DA164
:101F3000452B02C04EA145234083EBA1FCA150815B
:101F40004FA1452B4083EBA1FCA1508148A545231F
:101F50004083330F215031F7C1CFFE1017C0EF8DF2
:101F6000F8A1F0826B017C01CC0CDD1CEE1CFF1C87
:101F7000C114D104E104F104E9F0CE010E94CF08BC
:101F800081E0C81AD108E108F108F2CF6B017C01A9
:101F9000EF8DF8A1A082CE010E94CF08EF8DF8A1AD
:101FA000B082CE010E94CF0821E0C21AD108E10818
:101FB000F10871F7DF91CF911F910F91FF90EF9092
:101FC000DF90CF90BF90AF909F908F9008958F92A9
:101FD0009F92AF92BF92CF92DF92EF92FF920F93B8
:101FE0001F93CF93DF934C01EB016A01590137FF37
:101FF00007C0C9010196C80FD91FB194A194B108B7
:10200000F401A085B185CA17DB070CF058C017FF93
:1020100007C0C8010196C80ED91E11950195110976
:10202000F40182859385C816D9060CF048C0FE01DC
:10203000EA0DFB1DAF014150510957FD40C0B601EB
:10204000600F711F9B012150310937FD38C0D7FF48
:1020500003C05F01C0E0D0E0D7FE03C08B01C12CFC
:10206000D12C4A175B071CF05D01AC1ABD0A28177A
:1020700039071CF08C010C191D09D401ED91FC915C
:102080000680F781E02DC40109959501A601BE01E6
:10209000C4010E94390FD401ED91FC910288F389AB
:1020A000E02DC401DF91CF911F910F91FF90EF9030
:1020B000DF90CF90BF90AF909F908F900994DF9169
:1020C000CF911F910F91FF90EF90DF90CF90BF9035
:1020D000AF909F908F9008954F925F926F927F92F2
:1020E0008F929F92AF92BF92CF92DF92EF92FF9228
:1020F0000F931F93CF93DF93EC012B015A016901DA
:102100004701FC01E35BFF4F4081518132966081C2
:102110007181E12C88EFF82ECE010E94B507740181
:102120009601A501B201CE010E94B507DF91CF91C2
:102130001F910F91FF90EF90DF90CF90BF90AF90E5
:102140009F908F907F906F905F904F9008953F92F7
:102150004F925F926F927F928F929F92AF92BF92B7
:10216000CF92DF92EF92FF920F931F93CF93DF9363
:10217000CDB7DEB72C970FB6F894DEBF0FBECDBF3C
:102180005C01DC015B968D909C905C971696CD90DF
:10219000DD90ED90FC901997C114D104E104F10495
:1021A00039F0BFEFCB1ADB0AEB0AFB0A312C07C070
:1021B000F401C080D180E280F38033243394F401B1
:1021C00081859285A385B4859C01AD012F5F3F4F2A
:1021D0004F4F5F4F29873A874B875C87260137012E
:1021E0001D821E821F821886F40181859285A38537
:1021F000B4852D813E814F815885281739074A07BC
:102200005B0708F063C089859A85AB85BC858C1512
:102210009D05AE05BF0550F482E0C82ED12CE12CFF
:10222000F12C92E0492E512C612C712C9E012F5FD4
:102230003F4FB701A601C4010E948C16882309F400
:1022400045C089819A81AB81BC81892B8A2B8B2BDC
:1022500041F0260137019FEF491A590A690A790AA4
:1022600005C0C414D504E604F70491F02D813E8125
:102270004F8158852F5F3F4F4F4F5F4F2D833E83D8
:102280004F8358873FEFC31AD30AE30AF30AACCF50
:102290000FEF1FEF2FEF3FE0B301A201C4010E9437
:1022A000EB15882399F0D50116964D915D916D91AE
:1022B0007C911997411551056105710549F093010C
:1022C0008201C4010E94EB15811102C080E02AC086
:1022D000D50116964D925D926D927C92199733209E
:1022E00051F0D301C2010196A11DB11DF4018083FB
:1022F0009183A283B383F5018789908DA18DB28DDF
:10230000892B8A2B8B2B69F4D50157964D925D92C0
:102310006D927C925A9714968C91149780681496BB
:102320008C9381E02C960FB6F894DEBF0FBECDBF24
:10233000DF91CF911F910F91FF90EF90DF90CF90A1
:10234000BF90AF909F908F907F906F905F904F90D5
:102350003F9008951F920F920FB60F9211242F9362
:102360003F934F935F936F937F938F939F93AF931D
:10237000BF93EF93FF938091B900887F803609F473
:102380009CC068F5883209F45BC090F4803109F490
:1023900054C038F4882309F4EFC0883009F44DC0E4
:1023A000EFC0883109F44CC0803209F45DC0E8C048
:1023B000803409F468C048F4803309F455C0883388
:1023C00009F0DEC08093AD01D1C0803509F44FC063
:1023D000883509F45DC0883409F0D2C0CFC088398F
:1023E00009F4C0C0A8F4883709F467C038F4883607
:1023F00009F463C0803709F460C0C2C0883809F4AA
:10240000B1C0803909F45FC0803809F0B9C05BC041
:10241000803B09F481C038F4803A09F466C0883AF8
:1024200009F47AC0ADC0803C09F4A0C0883C09F42E
:102430009DC0883B09F483C0A3C08091D30110C024
:102440009091D2018091D101981770F5E091D2015D
:1024500081E08E0F8093D201F0E0EF54FE4F808137
:102460008093BB0085EC7FC08093AD0187C0E09175
:10247000D20181E08E0F8093D2018091BB00F0E009
:10248000EF54FE4F80839091D2018091D10167C0BB
:10249000E091D20181E08E0F8093D2018091BB0048
:1024A000F0E0EF54FE4F80838091B001811166C04F
:1024B00081E08093AF0184EA5AC083E08093AE014B
:1024C00010922202CFCF80912202803208F04AC0BF
:1024D000E091220281E08E0F809322028091BB0066
:1024E000F0E0EE5FFD4F8083BDCF8091220280320D
:1024F00030F4E0912202F0E0EE5FFD4F10820E9486
:10250000370B6091220270E082E092E0E0E0F0E0C0
:102510000995109222022AC084E08093AE011092A5
:10252000010210920002E0E0F0E0099580910002C3
:10253000811105C081E0809300021092E001E091DA
:10254000010281E08E0F80930102F0E0E052FE4F25
:1025500080818093BB0090910102809100029817C6
:1025600008F480CF85E88093BC000AC085EC809396
:10257000BC001092AE0104C01092AD010E94370B56
:10258000FF91EF91BF91AF919F918F917F916F914B
:102590005F914F913F912F910F900FBE0F901F9021
:1025A00018951F920F920FB60F9211242F933F93FD
:1025B0008F939F93EF93FF93209163023091640276
:1025C00080916502909166022817390731F4809155
:1025D000C1008F7D8093C10014C0E0916502F0912D
:1025E0006602ED5DFD4F208180916502909166024B
:1025F00001968F73992790936602809365022093CA
:10260000C600FF91EF919F918F913F912F910F9075
:102610000FBE0F901F9018951F920F920FB60F923A
:1026200011242F934F935F938F939F93EF93FF9377
:102630008091C00082FD1CC02091C6008091A7023D
:102640009091A8024091A9025091AA0201968F731D
:1026500099274817590771F0E091A702F091A80255
:10266000E959FD4F20839093A8028093A70202C0EE
:102670008091C600FF91EF919F918F915F914F9153
:102680002F910F900FBE0F901F9018958EBD0DB417
:1026900007FEFDCF08950F931F93CF93DF938B0118
:1026A0002FB7F8948091160390911703A091180307
:1026B000B09119032FBFEC018FEF0E9446138EB526
:1026C0008F3F91F02FB7F8948091160390911703E4
:1026D000A0911803B09119032FBF8C1B9D0B80177D
:1026E000910750F380E001C081E0DF91CF911F910D
:1026F0000F9108950895CF92DF92EF92FF920F937A
:102700001F93CF93DF936C01EB017B01E40EF51E69
:1027100000E010E0CE15DF0561F06991D601ED9182
:10272000FC910190F081E02DC6010995080F191F59
:10273000F1CFC801DF91CF911F910F91FF90EF90E2
:10274000DF90CF90089590E0FC01ED5EF94F249169
:10275000FC01E150FA4F3491FC01E551FA4FE4914C
:10276000EE2309F43CC0222339F1233091F038F4F0
:102770002130A9F0223001F584B58F7D12C02630BA
:1027800091F02730A1F02430B9F4809180008F7D42
:1027900003C0809180008F77809380000DC084B546
:1027A0008F7784BD09C08091B0008F7703C080917E
:1027B000B0008F7D8093B000F0E0EE0FFF1FEF516F
:1027C000FA4FA591B4919FB7F894611104C08C9110
:1027D0003095382302C0EC913E2B3C939FBF089567
:1027E00061E0FC0184810C94A313CF93DF93EC018F
:1027F0008FEF8EBD2FEF8F819885AC014F5F5F4FBC
:1028000058874F838130924028F40DB407FEFDCFE6
:102810002EBDF1CF0DB407FEFDCFCE010E94F01307
:102820001E82DF91CF9108958F929F92AF92BF92B7
:10283000FF920F931F93CF93DF93EC01F62E490184
:102840005A018E81882319F0CE010E94F51360E0B1
:102850008C810E94A3136CE271E0CE010E944B13A5
:102860008F2D80640E94461308E110E0D501C40159
:10287000002E04C0B695A795979587950A94D2F730
:102880000E94461308501109083F8FEF180771F78F
:10289000FF2029F088E0F81204C087E803C085E92A
:1028A00001C08FEF0E94461310E08FEF0E94461385
:1028B0008EB58A8787FF04C01F3F11F01F5FF5CFD9
:1028C000DF91CF911F910F91FF90BF90AF909F909C
:1028D0008F9008950F931F93CF93DF93EC0189019D
:1028E000411551056105710511F482E146C08B85E2
:1028F000833039F089E0440F551F661F771F8A9592
:10290000D1F79A01AB0168E1CE010E94141488232B
:1029100011F084E032C08EEF8EBDF801C8019E5FD9
:102920000DB407FEFDCF20812EBD0DB407FEFDCFF7
:1029300021812EBD32968E179F0791F70DB407FEA9
:10294000FDCF8FEF0E9446138FEF0E9446138FEF4B
:102950000E9446138EB58A878F71853031F081E1F0
:102960008D83CE010E94F01309C068E572E0CE01AC
:102970000E944B13811107C085E18D83CE010E9417
:10298000F01380E015C020E030E0A9016DE0CE0139
:102990000E941414811106C08FEF0E9446138EB559
:1029A000882311F084E1E9CFCE010E94F01381E089
:1029B000DF91CF911F910F91089580911A03882381
:1029C00089F14091000150910101609102017091E3
:1029D00003012FE133E080E090E00E946A1481114E
:1029E00002C080E0089540911B0350911C03609148
:1029F0001D0370911E03411551056105710581F09C
:102A00002FE133E080E090E00E946A14882349F3CC
:102A100010921B0310921C0310921D0310921E03B0
:102A200010921A0381E00895CF92DF92EF92FF9205
:102A30001F93CF93DF936B017C01142F80910001D2
:102A400090910101A0910201B09103018C159D05A7
:102A5000AE05BF0509F4B1C00E94DD14882309F456
:102A6000B2C0809106008823A1F08091000090916F
:102A70000100A0910200B0910300C816D906EA0631
:102A8000FB0639F48091070090910800892B09F426
:102A900057C0C0920000D0920100E0920200F09274
:102AA000030080910B00A7019601833039F089E083
:102AB000220F331F441F551F8A95D1F761E180E033
:102AC00090E00E941414882321F083E08093050095
:102AD00066C02FB7F8948091160390911703A091C8
:102AE0001803B09119032FBFEC018FEF0E9446131A
:102AF0008EB580930A008F3F91F42FB7F8948091A0
:102B0000160390911703A0911803B09119032FBFDA
:102B10008C1B9D0B8D32914040F38FE003C08E3FA4
:102B200041F08DE08093050080E090E00E94F0137A
:102B300036C0109208001092070081E080930600D2
:102B40008FEF8EBDEFE1F3E08EE195E02FEF0DB456
:102B500007FEFDCF3EB531932EBD8E179F07B9F707
:102B60000DB407FEFDCF8EB580931E058091070042
:102B7000909108009E5F9093080080930700209139
:102B80000900222319F08115924078F08091060007
:102B9000882359F080E090E00E94F51306C080E0A1
:102BA00090E00E94F01380E00EC0C0920001D0922D
:102BB0000101E0920201F092030140911A03412BBE
:102BC00040931A0381E0DF91CF911F91FF90EF9026
:102BD000DF90CF9008954F925F926F927F928F9285
:102BE0009F92AF92BF92CF92DF92EF92FF920F939C
:102BF0001F93CF93DF93EC014230510561057105BE
:102C000010F480E078C089859A85AB85BC850196F3
:102C1000A11DB11D84179507A607B70790F3CB88B0
:102C2000DC88ED88FE888F89803129F4BB27A72FA7
:102C3000962F852F09C0DB01CA01E7E0B695A7955D
:102C400097958795EA95D1F7480159012A013B01EB
:102C5000C80ED91EEA1EFB1E809100019091010151
:102C6000A0910201B0910301C816D906EA06FB063D
:102C700081F48F898031A9F4B301A2015527662719
:102C80007727440F551FFA01E15EFC4F9182808245
:102C900019C040E0C701B6010E9414158111E9CFA7
:102CA000B0CFB301A2014F77552766277727440F8E
:102CB000551F440F551FFA01E15EFC4F808291823F
:102CC000A282B38280911A03816080931A038A8959
:102CD000823080F08D819E81AF81B885C80ED91E6B
:102CE000EA1EFB1EC0921B03D0921C03E0921D0340
:102CF000F0921E0381E0DF91CF911F910F91FF9021
:102D0000EF90DF90CF90BF90AF909F908F907F908B
:102D10006F905F904F9008958F929F92AF92BF9265
:102D2000CF92DF92EF92FF920F931F93CF93DF9397
:102D3000FC0181859285A385B4850196A11DB11DF5
:102D400084179507A607B70710F480E05BC0838857
:102D50009488A588B6888789803129F4BB27A72F56
:102D6000962F852F09C0DB01CA01C7E0B695A7954C
:102D700097958795CA95D1F7E9016A017B018F0183
:102D8000BC01CD01680D791D8A1D9B1D809000013D
:102D900090900101A0900201B0900301681579059F
:102DA0008A059B0591F4F80187898031A1F4DD241F
:102DB000EE24FF24C601880F991FFC01E15EFC4F41
:102DC00080819181A0E0B0E018C040E00E9414151D
:102DD0008111E9CFBACFE894C7F8DD24EE24FF24AF
:102DE000C601880F991F880F991FFC01E15EFC4FF7
:102DF00080819181A281B381BF7088839983AA83E6
:102E0000BB8381E0DF91CF911F910F91FF90EF90F5
:102E1000DF90CF90BF90AF909F908F9008954F928A
:102E20005F926F927F92AF92BF92CF92DF92EF92BA
:102E3000FF920F931F93CF93DF9300D000D01F9288
:102E4000CDB7DEB78C016D83DC0115968C9115979B
:102E5000813009F054C014968C9181FF50C057C046
:102E6000258530E0275F3F4F2A013B01B1E04B1A37
:102E7000510861087108022E04C076946794579433
:102E800047940A94D2F7D701C6010197A109B10965
:102E900004C0B695A795979587952A95D2F784157E
:102EA0009505A605B70508F076C0F8014789508D4D
:102EB000618D728D46835783608771872C013D0138
:102EC0005801F6E0AF0EB11C4114510461047104C5
:102ED00009F46BC0D80116964D915D916D917C916E
:102EE000199795015B968D919C915C970E948C1629
:102EF000B1E04B1A5108610871088111E5CF81E0FA
:102F000090E0F8019383828380E090E05BC182FFD0
:102F10000EC0F8014285538564857585C388D488C1
:102F2000E588F6884C155D056E057F05E9F4D80146
:102F30001A964D915D916D917C911D975B96ED91E7
:102F4000FC915C97948191506A017B0189E0F69431
:102F5000E794D794C7948A95D1F79C217A01B1E080
:102F6000FB22911173C027C0D801038CF48DE02D92
:102F7000C114D104E104F10409F072CF16961D9238
:102F80001D921D921C9219971A961D921D921D92C8
:102F90001C921D9714C0452B462B472B09F485CF57
:102FA00084199509A609B70989CFF801C286D38685
:102FB000E486F586BCCFE114F10409F047C0D801DE
:102FC00016964D915D916D917C9119974115510522
:102FD0006105710559F457968D919D910D90BC91A5
:102FE000A02D0097A105B10549F522C09E012F5FD4
:102FF0003F4FCF010E948C16882309F485CF898129
:103000009A81AB81BC81F801238D348DF901278928
:10301000203129F448EF5FEF60E070E004C048EF32
:103020005FEF6FEF7FE084179507A607B70730F0D3
:10303000C8010E94A710811106C061CFF8018683E4
:103040009783A087B187E12CF12C90E0D8015B96A3
:10305000ED91FC915C9716964D905D906D907C90F3
:103060001997B2E04B1A510861087108058404C031
:10307000440C551C661C771C0A94D2F7468557856C
:1030800060897189440E551E661E771E490E511CBB
:10309000611C711CE114F10409F5F80142855385A6
:1030A0006485758583899489A589B68948175907E8
:1030B0006A077B0798F00E94DD14882309F41FCF6C
:1030C000409200015092010160920201709203014E
:1030D00080911A03816080931A0308C041E0C30104
:1030E000B2010E941415882309F409CFF701E15EAB
:1030F000FC4F8D818083F80182859385A485B585F9
:103100000196A11DB11D82879387A487B587438946
:10311000548965897689481759076A077B0738F407
:10312000838B948BA58BB68B848180688483D80134
:1031300014968C9183FD03C081E090E043C0F801B8
:103140009581992309F4DBCE87FF37C066857785A3
:103150008089918941E00E941415882309F4CFCE1B
:10316000D8015296EC91B0E2EB9FF0011124E15EA0
:10317000FC4F309709F4C3CED80115968C91159762
:10318000823050F453964D915D916D917C9156979C
:10319000448F558F668F778FD80157964D915D91EB
:1031A0006D917C915A97538F428F758B648B1496D7
:1031B0008C9114978F7714968C930E94DD14811153
:1031C000BBCF9DCE0F900F900F900F900F90DF917F
:1031D000CF911F910F91FF90EF90DF90CF90BF9014
:1031E000AF907F906F905F904F900895CF93DF9353
:1031F00090E0FC01E150FA4F2491FC01E551FA4FB7
:103200008491882361F190E0880F991FFC01E952B5
:10321000FA4FC591D491FC01EF51FA4FA591B491A9
:10322000611109C09FB7F894888120958223888313
:10323000EC912E230BC0623061F49FB7F894888123
:10324000322F309583238883EC912E2B2C939FBFB4
:1032500006C08FB7F894E8812E2B28838FBFDF91AB
:10326000CF910895CF92DF92EF92FF92CF93DF93A9
:103270006B017C010E945819EB01C114D104E104D7
:10328000F10479F00E9458196C1B7D0B683E734065
:10329000A0F381E0C81AD108E108F108C851DC4F59
:1032A000ECCFDF91CF91FF90EF90DF90CF9008951A
:1032B0003FB7F8948091200590912105A0912205B7
:1032C000B091230526B5A89B05C02F3F19F00196A4
:1032D000A11DB11D3FBFBA2FA92F982F8827820F9C
:1032E000911DA11DB11DBC01CD0142E0660F771FEC
:1032F000881F991F4A95D1F708951F920F920FB614
:103300000F9211242F933F938F939F93AF93BF936B
:103310008091160390911703A0911803B09119039F
:1033200030911F0523E0230F2D3720F40196A11DB6
:10333000B11D05C026E8230F0296A11DB11D2093E3
:103340001F058093160390931703A0931803B0935F
:1033500019038091200590912105A0912205B0913B
:1033600023050196A11DB11D809320059093210591
:10337000A0932205B0932305BF91AF919F918F91A8
:103380003F912F910F900FBE0F901F901895CF93E4
:10339000DF93CDB7DEB7C156D1090FB6F894DEBFC3
:1033A0000FBECDBF1C821B8220EF30E03E832D83F9
:1033B00080E491E098878F833A8729879C878B8761
:1033C0001F8A1E861D86188A1F8681E08E8B8D8B34
:1033D0002FEF3FEF3C8B2B8B3A8B298B888F198EED
:1033E0001B8E1A8E1EAA8FEF8FAB8AE088AF89E002
:1033F00089AF1BAE1AAE1DAE1CAE1EAE1FAE24961C
:103400001CAE1DAE1EAE1FAE249780E691E099A3C0
:1034100088A3E4EFF5E0E491F0E0EE0FFF1FEF5139
:10342000FA4F859194919F8F8E8FE8E0F6E084911A
:103430008CABE5EFF5E0E491F0E0EE0FFF1FEF510C
:10344000FA4F259134913D8F2C8FE9E0F6E0E4911D
:10345000EAABE095EBAB80958DAB88E091E09A8389
:10346000898378942FEF80E792E02150804090404C
:10347000E1F700C0000040E050E0BA01DE01119623
:103480006D01CD010E94050A60E070E0C6010E9456
:103490002C04FE01EA5BFF4F6696FFAFEEAF669726
:1034A00028961FAE1EAE28974E01F8E48F0E911C91
:1034B000D4011D921C92FE01E65BFF4F6896FFAFA0
:1034C000EEAF689784E190E02C969FAF8EAF2C977B
:1034D0003E01FCE46F0E711CD3018D939C932E0171
:1034E000B2E54B0E511C80EE9FEFF2019183808379
:1034F00050EEE52EFF24FA9404E110E024E130E0E0
:1035000040E050E060E070E0C6010E94E70FCE01AD
:103510008A5B9F4F1C015301DE01A65BBF4F3D013B
:10352000B1E0B0938A01E2E5E09361011092880175
:10353000109289018091AE018111FCCFF1E0F093EE
:10354000AE01F093B0018FEF8093AD011092D201E4
:1035500085E08093D101F093D3018091D301846AF7
:103560008093D3018091AF01813041F41092AF017B
:103570008091D3018093BB0085EC01C085EE8093E0
:10358000BC008091AE018130E1F38091D2018630A0
:1035900018F49091D20101C096E021EBE22E21E0D7
:1035A000F22EABE8B1E0F70180E0891721F021911C
:1035B0002D938F5FFACF1092AC018093AB018823DB
:1035C00009F4BBC002E611E09091AB018091AC011F
:1035D0009813BBC160E084ED91E00E944C0C2091F7
:1035E0008901213208F043C08091AE018111FCCFE6
:1035F0008091610192E09093AE0191E09093B001CF
:103600009FEF9093AD011092D2012093D101E8E693
:10361000F1E090E0291731F03191D7013D937D0120
:103620009F5FF8CF1092D3019091D301880F892B1F
:103630008093D3018091AF01813041F41092AF01AA
:103640008091D3018093BB0085EC01C085EE80930F
:10365000BC008091AE018230E1F38091AD018F3FDB
:1036600031F08091AD01803211F08091AD01109266
:1036700088011092890110928A018091620180383C
:1036800059F0843D90F48D32D0F4E1E0F0E0A09662
:10369000FFAFEEAFA09704C0A0961FAE1EAEA097DE
:1036A000A2961FAE1EAEA2970AC0A0961FAE1EAE77
:1036B000A09781E090E0A2969FAF8EAFA2978091F5
:1036C0006301803859F0843D90F48D32D0F4A1E04C
:1036D000B0E06E96BFAFAEAF6E9704C06E961FAEF1
:1036E0001EAE6E976C961FAE1EAE6C970AC06E969D
:1036F0001FAE1EAE6E97E1E0F0E06C96FFAFEEAF4E
:103700006C97809167018330A1F0823059F081304D
:1037100081F0811112C081E090E06A969FAF8EAF78
:103720006A970BC0A1E0B0E06A96BFAFAEAF6A97F0
:1037300004C06A961FAE1EAE6A976C96EEADFFADE2
:103740006C973197A1F5D4016D917C91F3012081A3
:103750003181CB01820F931F803F91050CF0B8C0DF
:1037600062964EAD5FAD62978417950759F4D1010B
:103770004D915C9160968EAD9FAD6097481759074B
:1037800009F4A6C0F5010081118128964EAD5FAD08
:103790002897E12CF12CC6010E946C10D3012D91C9
:1037A0003C91F40160817181620F731F0FC1A29679
:1037B0008EAD9FADA297019711F5D1014D915C910E
:1037C000F50100811181CA01800F911F8034F1E061
:1037D0009F070CF07DC060962EAD3FAD60978217BD
:1037E000930709F0C0C0D4012D913C9162968EAD33
:1037F0009FAD62972817390709F0B5C069C06E966A
:10380000EEADFFAD6E973197F9F4D4016D917C91D7
:10381000F30120813181CB01821B930B97FD58C0AE
:1038200062964EAD5FAD62978417950709F0BAC0F6
:10383000D1014D915C9160968EAD9FAD6097481718
:10384000590709F0AFC044C0A096EEADFFADA097F8
:103850003197F1F5D1014D915C91F5010081118114
:10386000CA01801B910B97FD33C060962EAD3FAD12
:1038700060978217930751F4D4012D913C91629681
:103880008EAD9FAD62972817390711F1F3012081A2
:103890003181D4016D917C91E12CF12CC6010E9403
:1038A0006C10F50100811181D1014D915C9111974E
:1038B000401B510B4D935C93F201E080F180D301EA
:1038C0002D913C91F40160817181C6010E946C10C0
:1038D0006A968EAD9FAD6A97019769F5D5010D91F6
:1038E0001C91F3012081318160964EAD5FAD6097F0
:1038F00062966EAD7FAD6297E12CF12CC6010E94FD
:103900006C10D1014D915C9160965FAF4EAF6097A6
:10391000F4016081718162967FAF6EAF6297D501CD
:103920000D911C91F30120813181E12C88EFF82E5B
:10393000C6010E946C10FFEF21EE84E0F1502040A0
:103940008040E1F700C00000EBCD84ED91E00E94E3
:10395000030CD8018D938D01E8E6F1E0EA17FB072F
:1039600009F438CE31CED3012D913C91F401608120
:103970007181E12CF12CC6010E946C10D5010D91D2
:103980001C91F10140815181400F511F51834083AF
:10399000D201ED90FC90F30120813181D4016D9131
:1039A0007C9193CFF5010081118128964EAD5FADDA
:1039B0002897E12CF12CC6010E946C10D3012D91A7
:1039C0003C91F40160817181621B730B7183608390
:1039D000D201ED90FC90F5010081118128964EAD49
:1039E0005FAD289772CFEBEAF2E01382128288EE85
:1039F00093E0A0E0B0E084839583A683B78324E3BB
:103A000031E03183208327E632E03587248723E2C3
:103A100032E03787268725EC30E0318B208B24EC91
:103A200030E0338B228B20EC30E0358B248B21EC83
:103A300030E0378B268B22EC30E0318F208F26EC64
:103A400030E0338F228F24E0248F23E0258F27E07E
:103A5000268F25E0278F21E020A3E4EDF1E01382FB
:103A6000128284839583A683B78384E491E0918353
:103A70008083EDECF2E0158216821186138682E0D7
:103A800090E0A0E0B0E084879587A687B78713A26F
:103A900015A614A684E591E093A782A717A608951A
:103AA000F8940C94771D0E945B1D332312F48A1B3B
:103AB0009B0B0C946C1DA29FB001B39FC001A39FF0
:103AC000700D811D1124911DB29F700D811D112457
:103AD000911D08950E945B1DB7FF0895821B930BF3
:103AE0000895EE0FFF1F0590F491E02D0994F894CE
:023AF000FFCF06
:103AF200FFFFFFFF00000000F7077B132309F40913
:103B020073094A07C50608072F053F03C6074A037C
:103B1200E1055306B5072C04BF036003050AA50996
:103B2200000000005A0B7B13E30BA70BC70B9C0B87
:103B3200000000004C0C1F0C170C030CF40BF30BD1
:103B4200000000000F177B13000000007A137B13A4
:00000001FF
